:020000040800F2
:10000000A0060020890100083B13000859120008CF
:100010003913000865030008C71600080000000037
:10002000000000000000000000000000471600086B
:100030006703000800000000451600084916000884
:10004000A3010008A3010008A3010008A301000800
:10005000A3010008A3010008A3010008A3010008F0
:10006000A3010008A3010008A3010008A3010008E0
:10007000A3010008A3010008A3010008A3010008D0
:10008000A3010008A3010008A3010008A3010008C0
:10009000A3010008A3010008A3010008A3010008B0
:1000A000A3010008A3010008A3010008A3010008A0
:1000B000A3010008A3010008A3010008A301000890
:1000C000A3010008A3010008A3010008A301000880
:1000D000A3010008A3010008A3010008A301000870
:1000E000A3010008A3010008A301000800F002F822
:1000F00000F03AF80AA090E8000C82448344AAF188
:100100000107DA4501D100F02FF8AFF2090EBAE885
:100110000F0013F0010F18BFFB1A43F0010318473B
:1001200080220000A0220000103A24BF78C878C1C5
:10013000FAD8520724BF30C830C144BF04680C60ED
:10014000704700000023002400250026103A28BF35
:1001500078C1FBD8520728BF30C148BF0B60704739
:100160001FB51FBD10B510BD00F058F81146FFF7C0
:10017000F7FF01F0B9FA00F076F803B4FFF7F2FFE9
:1001800003BC00F07DF8000009488047094800479B
:10019000FEE7FEE7FEE7FEE7FEE7FEE7FEE7FEE737
:1001A000FEE7FEE704480549054A064B7047000094
:1001B000C5160008ED000008A0000020A0060020E1
:1001C000A0020020A00200204FF0000200B513465C
:1001D00094469646203922BFA0E80C50A0E80C5067
:1001E000B1F12001BFF4F7AF090728BFA0E80C5018
:1001F00048BF0CC05DF804EB890028BF40F8042B11
:1002000008BF704748BF20F8022B11F0804F18BF7D
:1002100000F8012B7047704770477047754600F033
:100220002BF8AE4605006946534620F00700854688
:1002300018B020B5FFF7B6FFBDE820404FF000062C
:100240004FF000074FF000084FF0000B21F00701BE
:10025000AC46ACE8C009ACE8C009ACE8C009ACE801
:10026000C0098D46704710B50446AFF300802046A4
:10027000BDE81040FFF781BF0048704740000020F4
:1002800001491820ABBEFEE72600020070470000BF
:1002900070B5044600688168C943C90717D18168F1
:1002A00021F00101816000F00FFC05460AE000BF6B
:1002B00000F00AFC401B022804D920688068C04373
:1002C000C00706D020688068C043C007F0D0002077
:1002D00070BDA06A40F01000A062E06A40F001002A
:1002E000E062012070BD0000F8B5002604460096CB
:1002F00000688168C943C9072DD0816841F00101B8
:100300008160164816490068B0FBF1F000E0401E1D
:1003100000900028FBD100F0D7FB054616E000BF97
:1003200000F0D2FB401B022810D920688068C0432F
:10033000C0070BD0A06A40F01000A062E06A40F055
:100340000100E06284F824600120F8BD2068806824
:10035000C043C007E4D10020F8BD00000C0000201D
:1003600040420F00FEE7704772B6FEE7F8B5002581
:100370000446009590F8240001280BD0012084F851
:1003800024002046FFF784FF2046FFF7ADFF06005C
:1003900002D050E00220F8BDA06A20F4885040F05E
:1003A0000200A062022000F01FFC25490968B1FB91
:1003B000F0F0400000E0401E00900028FBD12068D3
:1003C000816841F00801816000F07EFB074608E08B
:1003D00000F07AFBC01B0A2803D920688068000758
:1003E00015D4206880680007F2D42068816841F045
:1003F0000401816000F068FB074612E000F064FB36
:10040000C01B0A280DD920688068400709D5A06A5A
:1004100020F0020040F01000A06284F82450012077
:10042000F8BD206880684007E8D4A06A20F0020088
:1004300040F00100A06284F824503046F8BD00006E
:100440000C000020F8B50024009490F824202546E4
:10045000012A12D0012280F824204A681F23072A8B
:100460000DD20668776B521E02EB820293409F43C7
:100470000B6893401F43776319E00220F8BD0668BC
:100480000D2A0AD2376BD21F02EB820293409F43A0
:100490000B6893401F43376309E0F76A0D3A02EB9C
:1004A000820293409F430B6893401F43F7620A68A0
:1004B000072306680A2A0AD3F7680A3A02EB4202BF
:1004C00093409F438B6893401F43F76008E0376970
:1004D00002EB420293409F438B6893401F43376176
:1004E0000A68102A01D0112A20D1124B02689A42C0
:1004F00017D193681B0219D4936843F400039360E7
:100500000968102912D10C490C4A0968B1FBF2F1B3
:1005100001EB8101490000E0491E00910029FBD157
:1005200004E0816A41F020018162012480F82450B6
:100530002046F8BD002401400C00002040420F007E
:100540000068C06C704700002DE9F0414FF00007D3
:1005500004003D467ED0A06A002628B9E66284F8F1
:100560002460204600F07EF82046FFF791FEA16A45
:10057000C90600D420B1A06A40F01000A06269E072
:10058000A16A21F4885141F00201A1626268E16927
:10059000237B0A4347EA43010A43A1684FF480776B
:1005A000B94209D0012907D05FF0000194F814C0C6
:1005B000BCF1010F02D00AE03946F7E7F3B1A36AB4
:1005C00043F02003A362E36A43F00103E36223687C
:1005D000D3F804C02CF4694C4CEA010CC3F804C0F5
:1005E00021688B68DFF870C003EA0C0313438B604B
:1005F000A168B9420BD0012909D00CE0DFF85CC03A
:10060000A3690CEB43330B4343F40061DFE7218A1A
:100610000D05A5F580152168CB6A23F470032B43E3
:10062000CB62216889680E4B1940914208D1E6627D
:10063000A16A21F0020141F00101A162BDE8F0814F
:10064000A06A20F0020040F01000A062E06A40F0D2
:100650000100E0620120F1E7FDF7E1FF00E0FFFFAC
:10066000FE0E1FFF00B585B000210091019102919F
:10067000039100680E49884218D10E48816941F4FF
:1006800000718161816901F400710491816941F017
:10069000040181618069694600F004000490012032
:1006A000009003200190044800F018F905B000BD47
:1006B0000024014000100240000801402DE9F843E9
:1006C00000270D460446009700F0FEF9804620689A
:1006D0008168C90508D5A06A40F02000A06284F8AE
:1006E00024700120BDE8F8834168C90503D4C06ABD
:1006F00010F4700F2AD0022000F076FA3B49096806
:10070000B1FBF0F62068036939490B424FEA6101F9
:100710004FEAA1121FD1C3684FEA611C13EA0C0F04
:1007200019D103690B4225D1C068104222D114208F
:1007300023E0681C0AD02DB100F0C6F9A0EB080038
:10074000A84203D920680068800725D52068006882
:100750008007EED52DE003690B4202D1C16811423A
:1007600006D0026923490A4206D1C068084203D173
:10077000542002E0292000E0FC204643009816E0C7
:10078000681C11D02DB100F09FF9A0EB0800A84221
:100790000AD90098B04207D2A06A40F00400A062D3
:1007A00084F8247003209DE70098401C0090B0421C
:1007B000E6D321686FF012000860A06A40F4007070
:1007C000A06220688068C0F3424007280CD1207BDB
:1007D00050B9A06A20F48070A062A06AC00403D45B
:1007E000A06A40F00100A06200207BE70C0000201E
:1007F000244992244992240070B5044690F82400BC
:1008000001280DD0012084F824002046FFF76CFD5C
:1008100002004FF0000005D084F82400104670BD9F
:10082000022070BDA16A40F20123994341F4807116
:10083000A1621F4D23681F49AB4218D10E6816F400
:10084000702F14D0A66A46F48016A6620E6876054C
:1008500005D5A66A26F4005646F48056A662A66A16
:10086000F6040AD5E66A26F00606E66206E0A66AFF
:1008700026F48016A6625E68E9E7E06284F8240048
:100880006FF00200186020688368C3F34243072BAF
:1008900005D1A84208D1096811F4702F04D08168ED
:1008A00041F480118160B9E7816841F4A001F9E762
:1008B000002801400424014070B5044600F004F90A
:1008C0000546601C02D004480078044400F0FCF89F
:1008D000401BA042FAD370BD000000202DE9F84F64
:1008E000DFF8B8910024A9F1040B23460F2709F182
:1008F000040AABF1040EC9E00125A5402A40AA4232
:100900007DD1674ED1F804C0ACEB0608B44532D0B7
:1009100014DCBCF1030F3AD009DCBCF1000F2AD083
:10092000BCF1010F1CD0BCF1020F31D11DE0BCF1B4
:10093000110F17D0BCF1120F2AD119E0B8F5881F9A
:1009400019D006DCB8F5803F15D0B8F5801F1FD14F
:1009500011E0B8F5001F0ED0B8F5041F18D10AE059
:10096000CB6815E0CB681B1D12E0CB6808330FE0A5
:10097000CB680C330CE08B682BB1012B4FF00803D4
:1009800003D0456104E0042302E0056100E0002398
:10099000FF2A01D8064601E000F104064FEA84056B
:1009A00001D9A5F12005D6F8008007FA05FC28EA50
:1009B0000C0803FA05F548EA0508C6F800804D68FA
:1009C000ED0062D5374DAE6946F00106AE61AD6906
:1009D00024F0030605F001050095334D06EB050CE8
:1009E000DCF80850A607360F07FA06F825EA0805CE
:1009F000DFF8B880404503D14FF0000817E044E02D
:100A0000DFF8AC80404502D14FF001080FE0DFF87D
:100A1000A480404502D14FF0020808E0DFF898803A
:100A2000404502D14FF0030801E04FF0040808FAF6
:100A300006F848EA0508CCF808804D68D9F8006047
:100A4000ED024D4601D5164300E096432E604D68F9
:100A5000DAF80060AD02554601D5164300E0964332
:100A60002E604D68DBF80060AD035D4601D516438E
:100A700000E096432E604D68DEF80060ED03754699
:100A800001D5164300E096432E60641C0D682A468B
:100A9000E5407FF431AFBDE8F88F00000804014065
:100AA0000000111000100240000001400008014049
:100AB000000C014000100140001401400AB1016126
:100AC00070470904FBE70000014880687047000098
:100AD000000000200248816802781144816070475C
:100AE00000000020074810B5016841F010010160C6
:100AF000032000F067F80F2000F006F800F024F85B
:100B0000002010BD0020024070B50D4D04464FF48A
:100B10007A712878B1FBF0F00A490968B1FBF0F06E
:100B200000F086FB48B9102C07D200222146501E47
:100B300000F028F800206C6070BD012070BD00003E
:100B4000000000200C0000200C4808B5816941F02D
:100B500001018161816901F001010091C16941F0E8
:100B60008051C161C06900F0805000900448416824
:100B700021F0E06141F00071416008BD00100240C9
:100B800000000140F0B40E4B1B680C46C3F3022377
:100B9000C3F10705042D00D90425191D072901D229
:100BA000002300E0DB1E012606FA05F1491E214064
:100BB00099409E40761E16403143F0BC00F084BD43
:100BC0000CED00E0064900F0070208684FF6FF034D
:100BD000184040EA0220034A1043086070470000B2
:100BE0000CED00E00000FA0510B501460020234C92
:100BF000012922D0022939D010291DD1616822682B
:100C0000D20119D51E48C1F38342C903805C0AD5BD
:100C100061681B4AC1F34041921E515C194AB2FB04
:100C2000F1F1484301E0184948436168490203D49F
:100C300040000321B0FBF1F010BD226AC2F3012194
:100C4000012903D1920701D5C80310BD022905D19E
:100C5000626A920702D549F6404010BD0329FCD1D3
:100C600021688903F9D54FF2244010BD00F01AF92C
:100C70006168C1F38131491C4900DBE70010024083
:100C8000881D000800127A0000093D002DE9F84394
:100C900005460078354CC00754D0E0690026C000F6
:100CA00008D4E06940F08050E061E069012600F07E
:100CB000805000902E480168C90512D40168804612
:100CC00041F480710160FFF7FFFE074605E000BFB9
:100CD000FFF7FAFEC01B642823D8D8F80000C0052F
:100CE000F6D5206A10F4407021D0A98801F4407133
:100CF00081421CD0206A1F49012220F440700A6002
:100D000000220A602062C00711D0FFF7DDFE07460F
:100D100041F2883808E000BFFFF7D6FEC11B41450D
:100D200002D90320BDE8F883206A8007F4D5206A41
:100D3000696820F44070084320621EB1E06920F029
:100D40008050E0612878800705D56068A96820F4A4
:100D50004040084360602878C00605D56068E968AF
:100D600020F48000084360600020DBE700100240B0
:100D700000700040400442422DE9F0470F46050054
:100D800061D0434E306800F00700B84209D23068A5
:100D900020F0070038433060306800F00700B842A8
:100DA00051D128683B4C810712D5400703D56068B4
:100DB00040F4E06060602878000703D5606840F484
:100DC000605060606068A96820F0F00008436060CF
:100DD0002878C00728D06868012810D02168022828
:100DE00010D0890700292EDA616821F00301014340
:100DF0006160FFF769FE804641F288390DE02168A5
:100E00008903EFE78901EDE7FFF75EFEA0EB08013C
:100E1000494502D90320BDE8F0876068696800F0A1
:100E20000C00B0EB810FEFD1306800F00700B84242
:100E30000BD9306820F0070038433060306800F08C
:100E40000700B84201D00120E5E72878400705D522
:100E50006068E96820F4E060084360602878000773
:100E600006D56068296920F4605040EAC1006060DE
:100E700000F028F86168084AC1F30311515CC840CA
:100E80000649086006480068FFF73EFE0020C2E7FA
:100E90000020024000100240981D00080C000020B5
:100EA000040000200448054900684968044AC1F369
:100EB000C221515CC84070470C0000200010024065
:100EC000A81D00080E4A51680E4801F00C03042BBF
:100ED00011D0082B0FD10C48C1F38343C903C05C68
:100EE0000AD55168084AC1F34041921E515C054A37
:100EF0005043B0FBF1F0704704494843704700008D
:100F00000010024000127A00761D000800093D0022
:100F10002DE9F84F040070D02078C04DC00749D0AB
:100F20006868C0F38100012807D06868C0F38100B9
:100F3000022809D16868C00306D52868800339D51E
:100F400060680028E7D035E06068B0F5803F0BD0DE
:100F500010B1B0F5A02F11D0286820F4803028609F
:100F6000286820F4802002E0286840F4803028605F
:100F7000606890B1FFF7A8FD06460AE0286840F4D3
:100F800080202860F0E700BFFFF79EFD801B6428EB
:100F900073D828688003F7D50CE0FFF795FD064667
:100FA00005E000BFFFF790FD801B6428F0D828689B
:100FB0008003F7D420789A4E80074FF001094FF054
:100FC000000839D5686810F00C0F07D06868C0F3C6
:100FD0008100022809D16868C00306D42868800708
:100FE00014D52069012808D110E02069B0B1C6F8F5
:100FF0000090FFF769FD074605E00AE1FFF764FD91
:10100000C01B0228C4D828688007F7D52868616902
:1010100020F0F80040EAC10028600DE0C6F800802A
:10102000FFF752FD074604E0FFF74EFDC01B022804
:1010300023D828688007F7D4207800072CD5794872
:10104000A169D9B1C0F80090FFF73EFD074604E062
:10105000FFF73AFDC01B02280FD8686A8007F7D552
:1010600071484FF4FA510068B0FBF1F0009000BFF6
:101070000098411E0091FAD20EE080E0C0F8008096
:10108000FFF722FD074604E0FFF71EFDC01B022804
:1010900075D8686A8007F7D42078400760D5E8697A
:1010A0000027C00008D4E86940F08050E861E86992
:1010B000012700F0805000905C480168C90513D4F6
:1010C0000168834641F480710160FFF7FDFC8246B0
:1010D00006E000BFFFF7F8FCA0EB0A0064284ED83A
:1010E000DBF80000C005F5D5E06801280AD008B19A
:1010F000052813D0286A20F001002862286A20F011
:10110000040002E0286A40F001002862E06841F231
:10111000883B98B1FFF7D8FC82460BE0286A40F084
:1011200004002862EEE700BFFFF7CEFCA0EB0A0147
:1011300059455AD8286A8007F6D50CE0FFF7C4FC59
:10114000824605E0FFF7C0FCA0EB0A0159454CD8E8
:10115000286A8007F6D41FB1E86920F08050E86162
:10116000E06988B36968C1F38101022944D002288B
:10117000C6F8608004D0FFF7A7FC044638E034E0EE
:10118000FFF7A2FC074604E0FFF79EFCC01B022805
:101190002BD828688001F7D4206AB0F5803F05D1AC
:1011A0006868A16820F4003008436860D4E9080149
:1011B0000843696821F4741108436860C6F86090B8
:1011C000FFF782FC044606E025E000BFFFF77CFC49
:1011D000001B022809D828688001F7D51BE000BF52
:1011E000FFF772FC001B022802D90320BDE8F88F2C
:1011F00028688001F4D40EE00128F7D06868226ADC
:1012000000F48031914204D1616A00F47010884288
:1012100001D00120EAE70020E8E7000000100240CA
:1012200000004242800442420C0000200070004056
:1012300010B5401EB0F1807F01D3012010BD4FF0EA
:10124000E02460610F21601700F03EFA0020A061E9
:1012500007202061002010BDFEE700003EB50024FD
:1012600010480094019402940D4984600160047355
:101270000475012505614FF460214460C161FFF7E9
:1012800063F908B1FFF770F8CDE9004569460548F4
:101290000294FFF7D7F8002801D0FFF765F83EBDAC
:1012A000002401401000002070B586B000242048C2
:1012B0000094019402940394816941F020018161BA
:1012C000816901F020010491816941F0040181618B
:1012D000816901F004010491816941F00801816193
:1012E0008069144E00F0080004900022402130462E
:1012F000FFF7E4FB01224FF460713046FFF7DEFB9D
:10130000C02000900125CDE90154022469463046F1
:101310000394FFF7E3FA4FF4407000901120039418
:10132000CDE9010569463046FFF7D8FA06B070BD31
:1013300000100240000C0140FEE7FEE770B50024FB
:101340000021204600F0E3F80025002000F069F9B4
:101350006D1CEDB2802DF8D3641CE4B2082CEFD3E1
:1013600070BD000010B5FFF79FFF064C012211026F
:101370002046FFF7A3FB20460122BDE810405102A2
:10138000FFF79CBB000C01402DE9F047164E0024EE
:1013900007464FF080084FF40079B51528FA04F09D
:1013A000384201D0012200E0002249463046FFF7D2
:1013B00085FB012229463046FFF780FB00222946A3
:1013C0003046FFF77BFB641CE4B2082CE6D3012215
:1013D00029463046FFF772FB29463046BDE8F04704
:1013E0000022FFF76BBB0000000C014070B501222A
:1013F0000B4D540221462846FFF760FB01221602DE
:1014000031462846FFF75AFB002221462846FFF7BF
:1014100055FB31462846BDE870400022FFF74EBB21
:10142000000C014070B50A4D4FF4007400222146B3
:101430002846FFF743FB012211022846FFF73EFB37
:1014400021462846BDE870400122FFF737BB000067
:10145000000C014010B500204FF47A720021491CA5
:101460009142FCD3401C9042F8D3FFF77BFFAE20A3
:1014700000F0C6F8D52000F0C3F8802000F0C0F8D6
:10148000A82000F0BDF83F2000F0BAF8D32000F00B
:10149000B7F8002000F0B4F8402000F0B1F8A12027
:1014A00000F0AEF8C82000F0ABF8DA2000F0A8F8A1
:1014B000122000F0A5F8812000F0A2F8CF2000F063
:1014C0009FF8D92000F09CF8F12000F099F8DB207B
:1014D00000F096F8302000F093F8A42000F090F887
:1014E000A62000F08DF88D2000F08AF8142000F07E
:1014F00087F8AF2000F084F8BDE81040FFF71EBF6A
:101500000246012000E05043491EFCD2704710B54E
:101510000C4640F0B00000F073F8102040EA1410C0
:1015200000F06EF804F00F00BDE8104000F068B85D
:101530002DE9F0410746CE004000083E801E1546CA
:101540004FF0FF38F1B2C0B2FFF7E1FF11480024BD
:1015500000EB05152819A0F5805090F8000E00F05A
:1015600060F8641CE4B2082CF4D308EB4700F1B235
:10157000C0B2FFF7CCFF00242819A0F5805090F8E6
:10158000080E00F04EF8641CE4B2082CF4D3BDE859
:10159000F0810000B01D00082DE9F04700241D4631
:1015A0001646884681460A2713E0291B0A20491E51
:1015B000FFF7A6FFB6FBF0F0B0FBF7F107FB110257
:1015C00008EB0400C1B248463032FFF7B1FF641C9B
:1015D000E4B2AC42E9D3BDE8F0872DE9F04115460D
:1015E0000E460746002406E03019C1B23846FFF720
:1015F0009FFF641CE4B22A5D002AF5D1BDE8F081AA
:1016000010B50446FFF7F2FE7820FFF7BDFE00207C
:10161000FFF7BAFE2046FFF7B7FEBDE81040FFF720
:1016200001BF10B50446FFF7E1FE7820FFF7ACFEDE
:101630004020FFF7A9FE2046FFF7A6FEBDE81040B8
:10164000FFF7F0BE70477047FFF744BA30B593B06C
:1016500028216846FEF7B8FD14210AA8FEF7B4FD5C
:10166000002501200F9510951195010412958DE824
:10167000230004904FF4E010CDE9081002240794F1
:101680006846FFF745FC08B172B6FEE70AA90F20CD
:1016900081E831004FF48060CDE90D0502210AA8F0
:1016A000FFF76AFB08B172B6FEE74FF400401190F5
:1016B0000F940FA8FFF7EAFA002801D072B6FEE7F0
:1016C00013B030BD7047FEE70907090E002804DBA0
:1016D00000F1E02080F80014704700F00F0000F1E6
:1016E000E02080F8141D7047FFF7FCF9FFF7AEFF0C
:1016F000FFF7DAFDFFF7B2FDFFF7ACFEFFF71EFEC6
:101700002A48FEF733FE012129A20846FFF765FFAC
:1017100029A201210220FFF760FFDFF8ACA0DFF86B
:10172000ACB04FF0FF366FF00B084FF06639642510
:101730001E48FFF761F831461C48FEF7BFFF1B4803
:10174000FEF7FEFE84B2204600F0C4F9414600F0E8
:10175000D3FA00F06DF94A46534600F06BF800F0FA
:1017600037F807460423224607210120FFF714FF1C
:10177000384600F08FF982B2012309210220FFF7D9
:101780000BFF5946384600F0B9F900F083F980B2F2
:10179000B0FBF5F105FB110202230B211846FFF700
:1017A000FBFE4FF47A70FFF787F8C1E710000020C6
:1017B00076616C75653A0000766F6C746167653AA6
:1017C000302E30307600000066660A400000C842C5
:1017D00021F00042A2F16052B2F5801F01F00043F7
:1017E00028BFD2F17F6C0BD95FEA001C43EAC2022A
:1017F00042EB507018BF704728BF20F001007047BF
:10180000B2F5801FBCBF184670474FEA410C1CF56B
:10181000001F02D2084600F038BA70B500F0B4F8E4
:1018200000000089FFF7F6BF4FF00040A0F58000F0
:1018300070470000DFF848C170B51CEA111E1EBFDA
:101840001CEA13159EEA0C0F95EA0C0F00F06F804E
:1018500081EA030423EA4C134EEAD47E21EA4C11B8
:1018600041F4801143F48013AE44A1FB024CA0FB71
:101870000365AEF17F7E361955EB0C05A1FB034CD9
:101880004CF10003A0FB021C16EB0C06654153F162
:101890000003094218BF46F0010613F4007F0BD184
:1018A0004FEA03314FEA0530340341EA155140EA6B
:1018B00016506FF003020AE04FEAC3214FEAC52039
:1018C000F40241EA555140EA56506FF0020202EB31
:1018D0002E4201EB025585EACE710AD05FEA440C34
:1018E00018BF24F0004450F1000041F1000120EA4B
:1018F000D47040F2FE7C624500D270BDA84214BF95
:101900004FF080444FF04044002E08BF0024BEF149
:10191000806FA8BFA1F1C041BDE8704080F2828015
:101920004FF0000001F1C04101F0004170479EEA14
:101930000C0F0CEA131518BF95EA0C0F06D04FF0E8
:10194000000081EA030E0EF0004170BD00F01CF8AB
:101950008900013E00F007B800F009B84FEA430CD7
:101960005FEA5C5C08D081EA030100F05BB84FEAF3
:10197000410C5FEA5C5CF6D14FF000000149704712
:101980000000FF070000F87F0EF1020E2EF0030E9C
:101990005EF8046B364205D4012A43EB030515F5C6
:1019A000001F12D8012841EB010C1CF5001F0CD8B8
:1019B0000ED14FEAD17C15F5001F0CEB4C0C0CF14D
:1019C000020C08BF4CEBD37C04E04FF0080C01E0A4
:1019D0004FEAD37C0CEB4C0526FA05F606F0070619
:1019E000B6F1040C06D20EEB860CBDE870404CF04C
:1019F000010C6047DFE80CF0090B02024FF00041D8
:101A00004FF00000A1F5002170BD194610460128D5
:101A100051EB010418BFD4F5001484BF002001F07D
:101A2000004170BD0808A0F500114FEA3101704770
:101A300043004FEAD30C4FEA3C0C43401FBF400722
:101A40000CF1605113F0FE4F70471CF0006F03D192
:101A500000200CF0004170470CF0004343EA507046
:101A600010B540EACC0000F0CAF800BF00000092B8
:101A70004FEA0001FFF7D6BF4FF000414FF00000E2
:101A8000A1F5002170470000014800F003B900BF34
:101A90000000C07FC10DD1F19E0206DB4FEA00239A
:101AA00043F0004323FA02F07047004207D54FEAA3
:101AB0004001B1F1FE4F02D24FF00000704710B567
:101AC00000F09DF849922480002070476FEA2000C2
:101AD00070470000B0FA80F310FA03F2C3F19D03DF
:101AE0000AD0D90501EB1220530638BF704700F128
:101AF000010008BF20F00100704700004FF47F0C88
:101B00001CEAD0121EBF1CEAD11392EA0C0F93EA12
:101B10000C0F00F0478090EA010F48BF42F480723A
:101B20004FF0004C4CEA00204CEA012102EB03028A
:101B3000A0FB0113A2F50002002918BF43F0010326
:101B40005B0028BF4FEA330342EB22425FEA132CCB
:101B50004CEBC2502EBFBCEB436FB2F57C0F70470D
:101B60004FEA036CBCF1004F08BF20F00100B2F552
:101B70007C0F38BF70470BD582F0FF0212F5803F13
:101B8000C8BF704700F1C040D8BF00F000407047A8
:101B900000F5000C5FEA4C0C48BF7047B0F1C04044
:101BA00000F073B890EA010F0CEAD11348BF42F479
:101BB0008072624538BF634504D280EA010000F0BC
:101BC0000040704710B500F01AF800BF8900013ED0
:101BD00000F007B800F009B85FEA410C5FEA1C6C3E
:101BE00008D080EA010000F050B85FEA400C5FEADC
:101BF0001C6CF6D14FF00040A0F5800070470EF14C
:101C0000020E2EF0030E5EF8044B244204D44FEA79
:101C10004102B2F17F4F11D84FEA4003B3F17F4F39
:101C20000CD80ED14FEAD07CB2F17F4F0CEB4C0CAC
:101C30000CF1020C08BF4CEBD17C04E04FF0080C17
:101C400001E04FEAD17C0CEB4C0324FA03F404F0DE
:101C50000704B4F1040C06D20EEB840CBDE810406E
:101C60004CF0010C6047DFE80CF0070802024FF06F
:101C70000040A0F5800010BD0846420018BFD2F118
:101C8000807288BF00F0004010BDFF2141EAD050B3
:101C9000C00570470CF00F03092B08BF082000F0A7
:101CA00051800A2B0BD0082B18BF704708BF1CF0BF
:101CB000400F0AD04FF000004FF0000170471CF0B9
:101CC000400F18BF4FF0004070471CF0100F08D0B5
:101CD00020F0704300F07F4242EAD3014FEA4370A4
:101CE000704700F0604021F07F4242EA000201F0BC
:101CF0007F4040EA727070474FF0FF0212EAD05204
:101D00001CBF92F0FF038B42C2BFD14200EBC15017
:101D10007047002A0AD0002B0BD0002900F00040A9
:101D2000A4BF40F0FE4040F40000704700F00040C7
:101D3000704743024FF00B0C18BF4CF0806C7FF4DF
:101D4000A3AE70471CF4801F11D01CF4E02F03D009
:101D50006FEACC31490070474FF04050EFF30082FA
:101D600022F0704242EA000282F3008870474FF08E
:101D700000007047010202030405060708090A0B68
:101D80000C0D0E0F101001020203040506070809CE
:101D90000A0B0C0D0E0F10100000000000000000D8
:101DA0000102030406070809000000000102030401
:101DB0000000000000000000000000000000000023
:101DC000000000F8000000000000003330000000B8
:101DD00000100C06100C06000000000000000000BF
:101DE00040C07840C0784000043F04043F04040031
:101DF000007088FC08300000001820FF211E000041
:101E0000F008F000E018000000211C031E211E0055
:101E100000F00888700000001E21232419272110DB
:101E200010160E000000000000000000000000007E
:101E3000000000E018040200000000071820400025
:101E400000020418E0000000004020180700000015
:101E5000404080F0804040000202010F0102020079
:101E6000000000F0000000000101011F010101005D
:101E7000000000000000000080B0700000000000C2
:101E8000000000000000000000010101010101014B
:101E900000000000000000000030300000000000E2
:101EA00000000000806018040060180601000000B7
:101EB00000E010080810E000000F102020100F00B4
:101EC000001010F8000000000020203F202000003B
:101ED0000070080808887000003028242221300093
:101EE00000300888884830000018202020110E009B
:101EF0000000C02010F8000000070424243F240044
:101F000000F80888880808000019212020110E0018
:101F100000E0108888180000000F112020110E002A
:101F200000380808C83808000000003F0000000022
:101F30000070880808887000001C222121221C00E3
:101F400000E010080810E0000000312222110F000C
:101F5000000000C0C00000000000003030000000A1
:101F60000000008000000000000080600000000011
:101F7000000080402010080000010204081020002A
:101F80004040404040404000040404040404040075
:101F9000000810204080000000201008040201000A
:101FA000007048080808F00000000030360100000A
:101FB000C030C828E810E0000718272423140B00BD
:101FC0000000C038E0000000203C23020227382037
:101FD00008F8888888700000203F202020110E001B
:101FE000C030080808083800071820202010080012
:101FF00008F808080810E000203F202020100F00FB
:1020000008F88888E8081000203F202023201800C6
:1020100008F88888E8081000203F2000030000002E
:10202000C03008080838000007182020221E0200CF
:1020300008F808000008F808203F210101213F208E
:10204000000808F8080800000020203F20200000B9
:1020500000000808F8080800C08080807F000000A9
:1020600008F888C028180800203F200126382000E2
:1020700008F8080000000000203F20202020300049
:1020800008F8F800F8F80800203F003F003F200063
:1020900008F830C00008F808203F200007183F006B
:1020A000E01008080810E0000F10202020100F009A
:1020B00008F808080808F000203F2101010100008D
:1020C000E01008080810E0000F18242438504F00D2
:1020D00008F8888888887000203F2000030C302092
:1020E00000708808080838000038202121221C00D0
:1020F000180808F8080818000000203F2000000019
:1021000008F808000008F808001F202020201F0001
:102110000878880000C83808000007380E01000061
:10212000F80800F80008F800033C0700073C03002B
:10213000081868808068180820302C03032C302091
:102140000838C800C83808000000203F2000000000
:1021500010080808C8380800203826212020180058
:10216000000000FE020202000000007F404040002C
:10217000000C30C000000000000000010638C00064
:1021800000020202FE000000004040407F0000000C
:102190000000040202020400000000000000000031
:1021A000000000000000000080808080808080802F
:1021B0000002020400000000000000000000000017
:1021C00000008080808000000019242222223F200D
:1021D00008F8008080000000003F112020110E0050
:1021E0000000008080800000000E112020201100DF
:1021F000000000808088F800000E112020103F2091
:102200000000808080800000001F22222222130014
:10221000008080F0888888180020203F202000005F
:102220000000808080808000006B94949493600014
:1022300008F8008080800000203F210000203F201F
:1022400000809898000000000020203F202000001F
:10225000000000809898000000C08080807F00000F
:1022600008F8000080808000203F24022D302000EC
:10227000000808F8000000000020203F2020000097
:102280008080808080808000203F20003F20003FB1
:102290008080008080800000203F210000203F20BF
:1022A0000000808080800000001F202020201F0070
:1022B000808000808000000080FFA12020110E009F
:1022C0000000008080808000000E112020A0FF8090
:1022D000808080008080800020203F21200001003D
:1022E0000000808080808000003324242424190092
:1022F000008080E0808000000000001F202000009F
:102300008080000000808000001F202020103F20DF
:10231000808080000080808000010E30080601006F
:1023200080800080008080800F300C030C300F0014
:1023300000808000808080000020312E0E3120003F
:10234000808080000080808080818E70180601006F
:1023500000808080808080000021302C222130008D
:1023600000000000807C020200000000003F4040AE
:1023700000000000FF00000000000000FF0000005F
:102380000002027C800000000040403F000000008E
:102390000006010102020404000000000000000029
:1023A000C0230008000000201000000028010008E1
:1023B000D02300081000002090060000440100080F
:1023C00001000000100000000000000000127A0070
:04000005080000ED02
:00000001FF
