:020000040800F2
:10000000D8060020890100082711000833100008D5
:10001000251100088F020008E31500080000000009
:100020000000000000000000000000007D15000836
:100030009102000800000000331400087F1500083A
:10004000A3010008A3010008A3010008A301000800
:10005000A3010008A3010008A3010008A3010008F0
:10006000A3010008A3010008A3010008A3010008E0
:10007000A3010008A3010008A3010008A3010008D0
:10008000A3010008A3010008A3010008A3010008C0
:10009000A3010008A3010008A3010008A3010008B0
:1000A000A3010008A3010008A3010008A3010008A0
:1000B000A3010008A3010008A3010008A301000890
:1000C000A3010008A3010008A3010008A301000880
:1000D000A3010008A3010008A3010008A301000870
:1000E000A3010008A3010008A301000800F002F822
:1000F00000F03AF80AA090E8000C82448344AAF188
:100100000107DA4501D100F02FF8AFF2090EBAE885
:100110000F0013F0010F18BFFB1A43F0010318473B
:10012000141D0000341D0000103A24BF78C878C1A7
:10013000FAD8520724BF30C830C144BF04680C60ED
:10014000704700000023002400250026103A28BF35
:1001500078C1FBD8520728BF30C148BF0B60704739
:100160001FB51FBD10B510BD00F058F81146FFF7C0
:10017000F7FF01F00BFB00F076F803B4FFF7F2FF96
:1001800003BC00F07DF8000009488047094800479B
:10019000FEE7FEE7FEE7FEE7FEE7FEE7FEE7FEE737
:1001A000FEE7FEE704480549054A064B7047000094
:1001B000E1150008ED000008D8000020D806002056
:1001C000D8020020D80200204FF0000200B51346EC
:1001D00094469646203922BFA0E80C50A0E80C5067
:1001E000B1F12001BFF4F7AF090728BFA0E80C5018
:1001F00048BF0CC05DF804EB890028BF40F8042B11
:1002000008BF704748BF20F8022B11F0804F18BF7D
:1002100000F8012B7047704770477047754600F033
:100220002BF8AE4605006946534620F00700854688
:1002300018B020B5FFF7B6FFBDE820404FF000062C
:100240004FF000074FF000084FF0000B21F00701BE
:10025000AC46ACE8C009ACE8C009ACE8C009ACE801
:10026000C0098D46704710B50446AFF300802046A4
:10027000BDE81040FFF781BF0048704774000020C0
:1002800001491820ABBEFEE7260002007047FEE7DA
:10029000704772B6FEE700002DE9F84FDFF8B8911D
:1002A0000024A9F1040B23460F2709F1040AABF13E
:1002B000040EC9E00125A5402A40AA427DD1674E1F
:1002C000D1F804C0ACEB0608B44532D014DCBCF164
:1002D000030F3AD009DCBCF1000F2AD0BCF1010FAA
:1002E0001CD0BCF1020F31D11DE0BCF1110F17D0B1
:1002F000BCF1120F2AD119E0B8F5881F19D006DC1D
:10030000B8F5803F15D0B8F5801F1FD111E0B8F5C2
:10031000001F0ED0B8F5041F18D10AE0CB6815E015
:10032000CB681B1D12E0CB6808330FE0CB680C33A1
:100330000CE08B682BB1012B4FF0080303D0456113
:1003400004E0042302E0056100E00023FF2A01D855
:10035000064601E000F104064FEA840501D9A5F143
:100360002005D6F8008007FA05FC28EA0C0803FAF5
:1003700005F548EA0508C6F800804D68ED0062D52D
:10038000374DAE6946F00106AE61AD6924F0030653
:1003900005F001050095334D06EB050CDCF808501F
:1003A000A607360F07FA06F825EA0805DFF8B88031
:1003B000404503D14FF0000817E044E0DFF8AC807F
:1003C000404502D14FF001080FE0DFF8A48040451E
:1003D00002D14FF0020808E0DFF89880404502D1D2
:1003E0004FF0030801E04FF0040808FA06F848EA65
:1003F0000508CCF808804D68D9F80060ED024D463C
:1004000001D5164300E096432E604D68DAF800608F
:10041000AD02554601D5164300E096432E604D6867
:10042000DBF80060AD035D4601D5164300E096435E
:100430002E604D68DEF80060ED03754601D5164369
:1004400000E096432E60641C0D682A46E5407FF468
:1004500031AFBDE8F88F0000080401400000111022
:10046000001002400000014000080140000C014063
:1004700000100140001401400AB1016170470904F5
:10048000FBE7000001488068704700000C00002076
:100490000248816802781144816070470C00002096
:1004A000074810B5016841F010010160032000F019
:1004B00067F80F2000F006F800F024F8002010BDC7
:1004C0000020024070B50D4D04464FF47A71287833
:1004D000B1FBF0F00A490968B1FBF0F000F095FDBE
:1004E00048B9102C07D200222146501E00F028F8EF
:1004F00000206C6070BD012070BD00000C00002069
:10050000180000200C4808B5816941F001018161A3
:10051000816901F001010091C16941F08051C1611F
:10052000C06900F0805000900448416821F0E0610B
:1005300041F00071416008BD001002400000014020
:10054000F0B40E4B1B680C46C3F30223C3F107053E
:10055000042D00D90425191D072901D2002300E02C
:10056000DB1E012606FA05F1491E214099409E40F6
:10057000761E16403143F0BC01F0F8B80CED00E0F7
:10058000064900F0070208684FF6FF03184040EAEA
:100590000220034A10430860704700000CED00E0A1
:1005A0000000FA052DE9F0470F46050061D0434EE3
:1005B000306800F00700B84209D2306820F0070028
:1005C00038433060306800F00700B84251D12868E5
:1005D0003B4C810712D5400703D5606840F4E060CA
:1005E00060602878000703D5606840F46050606060
:1005F0006068A96820F0F000084360602878C007B0
:1006000028D06868012810D02168022810D08907F6
:1006100000292EDA616821F0030101436160FFF7D0
:1006200031FF804641F288390DE021688903EFE708
:100630008901EDE7FFF726FFA0EB0801494502D944
:100640000320BDE8F0876068696800F00C00B0EB3B
:10065000810FEFD1306800F00700B8420BD9306845
:1006600020F0070038433060306800F00700B842DF
:1006700001D00120E5E72878400705D56068E968E2
:1006800020F4E060084360602878000706D56068C1
:10069000296920F4605040EAC100606000F018F859
:1006A0006168084AC1F30311515CC84006490860FB
:1006B00006480068FFF706FF0020C2E7002002405E
:1006C000001002403218000818000020100000201E
:1006D0000E4A51680E4801F00C03042B11D0082B70
:1006E0000FD10C48C1F38343C903C05C0AD55168DC
:1006F000084AC1F34041921E515C054A5043B0FB89
:10070000F1F0704704494843704700000010024070
:1007100000127A002218000800093D002DE9F84F68
:10072000040070D02078C04DC00749D06868C0F37D
:100730008100012807D06868C0F38100022809D130
:100740006868C00306D52868800339D5606800282A
:10075000E7D035E06068B0F5803F0BD010B1B0F560
:10076000A02F11D0286820F480302860286820F459
:10077000802002E0286840F480302860606890B1F2
:10078000FFF780FE06460AE0286840F480202860D3
:10079000F0E700BFFFF776FE801B642873D8286857
:1007A0008003F7D50CE0FFF76DFE064605E000BFBD
:1007B000FFF768FE801B6428F0D828688003F7D410
:1007C00020789A4E80074FF001094FF0000839D584
:1007D000686810F00C0F07D06868C0F38100022829
:1007E00009D16868C00306D42868800714D5206939
:1007F000012808D110E02069B0B1C6F80090FFF7D9
:1008000041FE074605E00AE1FFF73CFEC01B022857
:10081000C4D828688007F7D52868616920F0F800F7
:1008200040EAC10028600DE0C6F80080FFF72AFE0C
:10083000074604E0FFF726FEC01B022823D82868DD
:100840008007F7D4207800072CD57948A169D9B161
:10085000C0F80090FFF716FE074604E0FFF712FE0F
:10086000C01B02280FD8686A8007F7D571484FF47B
:10087000FA510068B0FBF1F0009000BF0098411EF3
:100880000091FAD20EE080E0C0F80080FFF7FAFD98
:10089000074604E0FFF7F6FDC01B022875D8686A1A
:1008A0008007F7D42078400760D5E8690027C000AA
:1008B00008D4E86940F08050E861E869012700F059
:1008C000805000905C480168C90513D401688346D4
:1008D00041F480710160FFF7D5FD824606E000BF5C
:1008E000FFF7D0FDA0EB0A0064284ED8DBF800002B
:1008F000C005F5D5E06801280AD008B1052813D055
:10090000286A20F001002862286A20F0040002E032
:10091000286A40F001002862E06841F2883B98B103
:10092000FFF7B0FD82460BE0286A40F00400286221
:10093000EEE700BFFFF7A6FDA0EB0A0159455AD824
:10094000286A8007F6D50CE0FFF79CFD824605E09B
:10095000FFF798FDA0EB0A0159454CD8286A80079B
:10096000F6D41FB1E86920F08050E861E06988B3EF
:100970006968C1F38101022944D00228C6F8608069
:1009800004D0FFF77FFD044638E034E0FFF77AFD3E
:10099000074604E0FFF776FDC01B02282BD8286825
:1009A0008001F7D4206AB0F5803F05D16868A1685E
:1009B00020F4003008436860D4E9080108436968FE
:1009C00021F4741108436860C6F86090FFF75AFD7F
:1009D000044606E025E000BFFFF754FD001B022897
:1009E00009D828688001F7D51BE000BFFFF74AFD52
:1009F000001B022802D90320BDE8F88F2868800177
:100A0000F4D40EE00128F7D06868226A00F480313F
:100A1000914204D1616A00F47010884201D0012033
:100A2000EAE70020E8E70000001002400000424230
:100A300080044242180000200070004070B504009D
:100A400009D0606A002540B125616561A56294F80E
:100A5000510040B10CE0012070BD6068B0F5827FAC
:100A6000F4D0E561F2E784F85050204600F040F8F9
:100A7000022084F851002068016821F040010160E3
:100A8000A088218900F4827001F404410843A189FF
:100A900001F400610843217C01F002010843217D3B
:100AA00001F001010843218B01F400710843217F0B
:100AB00001F03801084394F8201001F08001084348
:100AC000218D01F40051084321680860A0690421C8
:100AD00001EA1040216848602068C16921F4006182
:100AE000C1616565012084F85100002070BD0000DF
:100AF00030B585B0002400940194029403940068FA
:100B00001449884223D11448816941F4805181619C
:100B1000816901F480510491816941F0040181618E
:100B200080690E4D00F004000490A0200090022087
:100B300001900320039069462846FFF7ADFB402053
:100B4000CDE90004694628460294FFF7A5FB05B0ED
:100B500030BD00000030014000100240000801409C
:100B60002DE9F84F044690F851001D4616460F46F1
:100B7000012838D160684FF00408B0F5827F01D1B8
:100B8000A06830B3FFF77EFC8246002F75D0002EA0
:100B900073D094F85000012825D04FF0010984F853
:100BA000509084F851804FF00008C4F85480A76337
:100BB000A687E687C4F83080A4F83480A4F836808D
:100BC000C4F84080C4F84480A068B0F5004F0CD051
:100BD00015E084F85180009313460A46204600F041
:100BE0001CF9BDE8F88F0220FBE72068016821F0BE
:100BF000400101602068016821F4804101602068A3
:100C00000168490603D4016841F040010160E068D1
:100C1000C0B134E020688168C90709D0007BA16BAE
:100C20000870A06B401CA063E08F401EE08709E0C5
:100C3000FFF728FCA0EB0A00A84202D3681C01D0F1
:100C400032E085B3E08F0028E4D11BE020688168A2
:100C5000C90709D0C068A16B0880A06B801CA06385
:100C6000E08F401EE0870AE0FFF70CFCA0EB0A00D3
:100C7000A84203D3681C02D016E012E09DB1E08FB9
:100C80000028E3D152462946204600F0D3FB08B1A4
:100C90002020606584F8519084F85080606D0028B1
:100CA0009FD001209DE7FFE784F8519084F85080A1
:100CB000032096E72DE9F84F984616468A460446E3
:100CC000FFF7E0FB814694F8510001281ED1BAF1EC
:100CD000000F73D0002E71D094F85000012815D069
:100CE000012784F85070032084F8510000256565C1
:100CF000C4F830A0A686E686A563A587E587656467
:100D00002564A068B0F5004F03D00CE00220BDE8D8
:100D1000F88F2068016821F04001016020680168B7
:100D200041F48041016020680168490603D40168EC
:100D300041F040010160E068B0F5006F606803D0E9
:100D400048B3012E27D047E008B1012E1FD1206BF8
:100D500021680088C86006E020688168890709D595
:100D6000216B0988C160206B801C2063E08E401ECF
:100D7000E0860CE0FFF786FBA0EB0901414503D3B9
:100D8000B8F1FF3F03D035E0B8F1000F32D0E08E6C
:100D90000028E1D123E0206B21680078087306E089
:100DA0002068816889070AD5216B09780173206B57
:100DB000401C2063E08E401EE0860DE02BE0FFF734
:100DC00061FBA0EB0901414503D3B8F1FF3F03D01C
:100DD00010E0B8F1000F0DD0E08E0028E0D14A46B7
:100DE0004146204600F054FB08B120206065A06811
:100DF00030B109E084F8517084F85050032086E740
:100E00002068C1688068009084F8517004F8505FD1
:100E100060680028F3D0012079E72DE9FF4F81B009
:100E20001D46934604464FF001090E9EFFF72AFB2C
:100E3000074694F851006168012806D0B1F5827F19
:100E40003CD1A168C9BB042838D10298002871D0D0
:100E5000BBF1000FFBD0002DF9D094F85000012811
:100E60002CD04FF0010A84F850A094F851000428C7
:100E700002D0052084F851004FF00008C4F85480D7
:100E8000C4F838B0E587A58702992163E586A58671
:100E9000C4F84080C4F8448020680168490603D43F
:100EA000016841F040010160E068B0F5006F6068E2
:100EB00008D0F0B3012D49D081E0FFE7022005B052
:100EC000BDE8F08F08B1012D39D1206B2168008871
:100ED000C860206B801C2063E08E401EE0862EE000
:100EE0002068816889070FD5E18E69B1B9F1010FDA
:100EF0000AD1216B0988C160206B801C2063E08EC1
:100F0000401EE0864FF0000920688168C9070CD0B8
:100F1000E18F51B1C068A16B0880A06B801CA063F9
:100F2000E08F401EE0874FF00109FFF7ABFAC01BCE
:100F300001E00BE067E0B04201D3701C50D1E08EBD
:100F40000028CDD1E08F0028CAD13EE0206B216877
:100F500000780873206B401C2063E08E401EE08602
:100F60002DE02068816889070FD5E18E69B1B9F15C
:100F7000010F0AD1216B09780173206B401C20639B
:100F8000E08E401EE0864FF0000920688168C907A6
:100F90000CD0E18F51B1C068A16B0870A06B401CF0
:100FA000A063E08F401EE0874FF00109FFF76AFA67
:100FB000C01BB04202D3701C01D011E086B1E08E9C
:100FC0000028CED1E08F0028CBD13A4631462046CA
:100FD00000F05EFA50B12020606584F8508012E085
:100FE00084F851A084F85080032068E7A06818B9FD
:100FF0002068C1688068009084F851A084F850800F
:10100000606D0028F1D0012059E710B5401EB0F105
:10101000807F01D3012010BD4FF0E02460610F21DB
:10102000601700F0A3FB0020A061072020610020D2
:1010300010BDFEE72DE9F04186B00024254800945C
:10104000019402940394816941F0200181618169D6
:1010500001F020010491816941F0040181618169FD
:1010600001F004010491816941F008018161806906
:10107000194F00F008000490012210213846FFF7B4
:10108000FBF9DFF8588000224FF440714046FFF72B
:10109000F3F901251020CDE900050226CDE902561D
:1010A00069463846FFF7F8F82802CDE90005CDE992
:1010B000024669464046FFF7EFF86802009001AA31
:1010C000112082E8510069464046FFF7E5F806B076
:1010D000BDE8F0810010024000080140000C014012
:1010E0000F4810B50D4901604FF482714160002135
:1010F0008160C1604FF400720161C0E90512C161F5
:101100000162416281620A21C162FFF797FC0028F7
:1011100003D0BDE81040FFF7BCB810BD003001405F
:101120001C000020FEE7FEE770B5002400212046E9
:1011300000F0E3F80025002000F06AF96D1CEDB224
:10114000802DF8D3641CE4B2082CEFD370BD0000EE
:1011500010B5FFF76FFF064C012211022046FFF782
:101160008BF920460122BDE810405102FFF784B9F7
:10117000000C01402DE9F047164E002407464FF0C1
:1011800080084FF40079B51528FA04F0384201D0F0
:10119000012200E0002249463046FFF76DF90122A6
:1011A00029463046FFF768F9002229463046FFF706
:1011B00063F9641CE4B2082CE6D3012229463046C8
:1011C000FFF75AF929463046BDE8F0470022FFF7FD
:1011D00053B90000000C014070B501220B4D5402C0
:1011E00021462846FFF748F90122160231462846D3
:1011F000FFF742F9002221462846FFF73DF9314624
:101200002846BDE870400022FFF736B9000C0140C7
:1012100070B50A4D4FF40074002221462846FFF7AE
:101220002BF9012211022846FFF726F9214628460C
:10123000BDE870400122FFF71FB90000000C01401B
:1012400010B500204FF47A720021491C9142FCD362
:10125000401C9042F8D3FFF77BFFAE2000F0C7F8A8
:10126000D52000F0C4F8802000F0C1F8A82000F0DC
:10127000BEF83F2000F0BBF8D32000F0B8F8002003
:1012800000F0B5F8402000F0B2F8A12000F0AFF86F
:10129000C82000F0ACF8DA2000F0A9F8122000F025
:1012A000A6F8812000F0A3F8CF2000F0A0F8D92004
:1012B00000F09DF8F12000F09AF8DB2000F097F89C
:1012C000302000F094F8A42000F091F8A62000F05F
:1012D0008EF88D2000F08BF8142000F088F8AF20F5
:1012E00000F085F8BDE81040FFF71EBF0246012060
:1012F00000E05043491EFCD2704710B50C4640F048
:10130000B00000F074F8102040EA141000F06FF8FC
:1013100004F00F00BDE8104000F069B82DE9F0417D
:101320000746CE004000083E801E15464FF0FF38AD
:10133000F1B2C0B2FFF7E1FF1148002400EB051540
:101340002819A0F5805090F8000E00F061F8641C98
:10135000E4B2082CF4D308EB4700F1B2C0B2FFF7B7
:10136000CCFF00242819A0F5805090F8080E00F05A
:101370004FF8641CE4B2082CF4D3BDE8F0810000FF
:10138000421800082DE9F0411D4617460E468046DA
:10139000002415E0291B1020491EFFF7A7FFB7FB0B
:1013A000F0F000F00F0206EB0400C1B20A2A40463A
:1013B00001D2303200E03732FFF7B0FF641CE4B2F4
:1013C000AC42E7D3BDE8F0812DE9F04115460E4669
:1013D0000746002406E03019C1B23846FFF79EFFE9
:1013E000641CE4B22A5D002AF5D1BDE8F08110B595
:1013F0000446FFF7F1FE7820FFF7BCFE0020FFF760
:10140000B9FE2046FFF7B6FEBDE81040FFF700BF6B
:1014100010B50446FFF7E0FE7820FFF7ABFE402052
:10142000FFF7A8FE2046FFF7A5FEBDE81040FFF736
:10143000EFBE7047F8B5044640684FF48273984297
:1014400017D1A0684FF48065B0F5004F01D0A842D5
:101450000FD12068066826F0400606606068984252
:1014600007D1A068A84204D100920B4600220121B6
:1014700003E000920B4600228021204600F022F873
:10148000002804D0606D40F0200060650320F8BDA6
:10149000F8B515460E460B4600920446012202217D
:1014A00000F010F840B93346002280212046009514
:1014B00000F008F8002804D0606D40F0200060655E
:1014C0000320F8BD2DE9F8431E46914688460446A0
:1014D000089DFEF7D7FF401B351AFEF7D3FF0746DE
:1014E00025480068C0F3CB30684338E0701C37D023
:1014F000FEF7C8FFC01BA84203D215B1009860B325
:101500002CE02068416821F0E00141606068B0F59E
:10151000827F0BD1A068B0F5004F02D0B0F5806F8C
:1015200004D12068016821F040010160A06AB0F593
:10153000005F09D12068016821F400510160206832
:10154000016841F400510160012084F8510000203D
:1015500084F850000320BDE8F8830025401E009069
:101560002068816838EA010004D000214945BDD1D6
:101570000020F0E70121F9E7180000207047FEF78E
:1015800087BF30B58FB028216846FEF71DFE1421B5
:101590000AA8FEF719FE01210804CDE90010002475
:1015A000029402250491CDE907504FF4E010099010
:1015B0006846FFF7B3F808B172B6FEE70F20CDE931
:1015C0000A054FF48060CDE90C4002210AA80E9470
:1015D000FEF7E8FF002801D072B6FEE70FB030BD7D
:1015E0007047FEE7012210210148FEF745BF0000C9
:1015F00000080140002210210148FEF73DBF000015
:1016000000080140FFF7EEBF70B515460E460446D0
:1016100000F0A2F8FFF7EEFF022000F05BF8C4F341
:10162000074000F057F8C4F3072000F053F8E0B289
:1016300000F050F84FF47A732A4631460448FFF719
:1016400039FBFFF7CFFFBDE8704000F071B8000034
:101650001C00002070B515460E460446FFF7CAFF71
:10166000032000F037F8C4F3074000F033F8C4F368
:10167000072000F02FF8E0B200F02CF8AAB24FF4E7
:101680007A7331460348FFF76BFABDE87040FFF705
:10169000A9BF00001C00002070B50C460546FFF7EE
:1016A000A9FF9F2000F016F8FF2000F013F8287023
:1016B000FF2000F00FF84FF6FF7101EA00202080B4
:1016C000FF2000F007F8218808432080BDE8704023
:1016D000FFF788BF01B582B04FF47A700090012304
:1016E00001AA02A90448FFF798FB08B1FF200EBD2C
:1016F0009DF804000EBD00001C00002010B504463B
:1017000000F02AF8FFF776FF2020FFF7E3FFC4F38D
:101710000740FFF7DFFFC4F30720FFF7DBFFE0B26E
:10172000FFF7D8FFFFF75EFFBDE81040AFF3008082
:1017300010B5084CFFF75EFF0520FFF7CBFFFF2039
:10174000FFF7C8FFC00701D0641EF8D1BDE8104004
:10175000FFF748BFA086010010B5FFF74BFF06203A
:10176000FFF7B8FFBDE81040FFF73CBF0907090EBF
:10177000002804DB00F1E02080F80014704700F03E
:101780000F0000F1E02080F8141D7047FEF788FE7E
:10179000FFF7F7FEFFF74EFCFFF7A2FCFFF732FF63
:1017A000FFF74EFD012117A20846FFF70DFE19A213
:1017B00001210220FFF708FE17A201210320FFF7F5
:1017C00003FE1649881EFFF767FF144C0223A41E70
:1017D000052122780120FFF7D5FD042362880C2122
:1017E0000120FFF7CFFD0020FFF788FF0422211D15
:1017F0000020FFF709FF042204F108010020FFF791
:1018000029FFFEE74D49443A202020204449443A2C
:1018100000000000570000005200000002000020FD
:10182000010202030405060708090A0B0C0D0E0F3E
:101830001010000000000000000001020304060771
:101840000809000000000000000000000000000087
:101850000000000000F8000000000000003330002D
:10186000000000100C06100C060000000000000034
:10187000000040C07840C0784000043F04043F04AA
:101880000400007088FC08300000001820FF211EB2
:101890000000F008F000E018000000211C031E21E9
:1018A0001E0000F00888700000001E212324192764
:1018B000211010160E0000000000000000000000C3
:1018C0000000000000E018040200000000071820DB
:1018D000400000020418E00000000040201807004B
:1018E0000000404080F0804040000202010F0102F1
:1018F0000200000000F0000000000101011F0101D2
:101900000100000000000000000080B07000000036
:1019100000000000000000000000000101010101C2
:101920000101000000000000000000303000000055
:10193000000000000000806018040060180601002C
:10194000000000E010080810E000000F1020201038
:101950000F00001010F8000000000020203F2020A1
:101960000000007008080888700000302824222138
:1019700030000030088888483000001820202011EE
:101980000E000000C02010F8000000070424243FCF
:10199000240000F808888808080000192120201178
:1019A0000E0000E0108888180000000F11202011A0
:1019B0000E0000380808C83808000000003F00008A
:1019C00000000070880808887000001C2221212275
:1019D0001C0000E010080810E00000003122221175
:1019E0000F00000000C0C000000000000030300008
:1019F0000000000000800000000000008060000087
:101A000000000000804020100800000102040810BF
:101A100020004040404040404000040404040404CE
:101A2000040000081020408000000020100804027C
:101A30000100007048080808F0000000003036017E
:101A40000000C030C828E810E0000718272423143D
:101A50000B000000C038E0000000203C23020227F9
:101A6000382008F8888888700000203F2020201146
:101A70000E00C03008080808380007182020201081
:101A8000080008F808080810E000203F2020201077
:101A90000F0008F88888E8081000203F2020232045
:101AA000180008F88888E8081000203F200003008C
:101AB0000000C03008080838000007182020221E47
:101AC000020008F808000008F808203F2101012161
:101AD0003F20000808F8080800000020203F2020D0
:101AE000000000000808F8080800C08080807F001F
:101AF000000008F888C028180800203F2001263878
:101B0000200008F8080000000000203F20202020CE
:101B1000300008F8F800F8F80800203F003F003FC8
:101B2000200008F830C00008F808203F20000718FF
:101B30003F00E01008080810E0000F1020202010DF
:101B40000F0008F808080808F000203F21010101F3
:101B50000000E01008080810E0000F182424385096
:101B60004F0008F8888888887000203F2000030C08
:101B70003020007088080808380000382021212211
:101B80001C00180808F8080818000000203F200072
:101B9000000008F808000008F808001F2020202096
:101BA0001F000878880000C83808000007380E01B8
:101BB0000000F80800F80008F800033C0700073CA4
:101BC0000300081868808068180820302C03032C54
:101BD00030200838C800C83808000000203F200026
:101BE000000010080808C8380800203826212020E6
:101BF0001800000000FE020202000000007F4040CA
:101C00004000000C30C00000000000000001063859
:101C1000C00000020202FE000000004040407F00C1
:101C200000000000040202020400000000000000A6
:101C300000000000000000000000808080808080A4
:101C4000808000020204000000000000000000008C
:101C500000000000808080800000001924222222E1
:101C60003F2008F8008080000000003F1120201174
:101C70000E000000008080800000000E1120202057
:101C80001100000000808088F800000E1120201054
:101C90003F200000808080800000001F222222223E
:101CA0001300008080F0888888180020203F2020C2
:101CB00000000000808080808000006B94949493EA
:101CC000600008F8008080800000203F2100002094
:101CD0003F2000809898000000000020203F202036
:101CE0000000000000809898000000C08080807F85
:101CF000000008F8000080808000203F24022D3082
:101D00002000000808F8000000000020203F2020EC
:101D100000008080808080808000203F20003F2065
:101D2000003F8080008080800000203F2100002054
:101D30003F200000808080800000001F20202020A5
:101D40001F00808000808000000080FFA120201103
:101D50000E000000008080808000000E112020A076
:101D6000FF80808080008080800020203F21200034
:101D7000010000008080808080000033242424241F
:101D80001900008080E0808000000000001F2020FB
:101D900000008080000000808000001F20202010B4
:101DA0003F20808080000080808000010E30080687
:101DB000010080800080008080800F300C030C3098
:101DC0000F0000808000808080000020312E0E31C6
:101DD0002000808080000080808080818E701806C6
:101DE000010000808080808080000021302C222132
:101DF000300000000000807C020200000000003F74
:101E0000404000000000FF00000000000000FF0054
:101E100000000002027C800000000040403F000003
:101E2000000000060101020204040000000000009E
:101E300000000000541E0008000000201C000000EC
:101E400028010008701E00081C000020BC060000CD
:101E5000440100080000000001020304000000002B
:101E600001000000100000000000000000127A00D5
:04000005080000ED02
:00000001FF
