:020000040800F2
:10000000F00600208901000813160008C514000836
:1000100011160008D5030008791900080000000037
:10002000000000000000000000000000F9180008B7
:100030000F04000800000000F7180008FB18000873
:10004000A3010008A3010008A3010008A301000800
:10005000A3010008A3010008A3010008A3010008F0
:10006000A3010008A3010008A3010008D9030008A8
:10007000A3010008A3010008A3010008A3010008D0
:10008000A3010008A3010008A3010008A3010008C0
:10009000A3010008A3010008A3010008A3010008B0
:1000A000A3010008A3010008A3010008A3010008A0
:1000B000A3010008A3010008A3010008A301000890
:1000C000A3010008A3010008A3010008A301000880
:1000D000A3010008A3010008A3010008A301000870
:1000E000A3010008A3010008A301000800F002F822
:1000F00000F03AF80AA090E8000C82448344AAF188
:100100000107DA4501D100F02FF8AFF2090EBAE885
:100110000F0013F0010F18BFFB1A43F0010318473B
:10012000E81E0000081F0000103A24BF78C878C1FC
:10013000FAD8520724BF30C830C144BF04680C60ED
:10014000704700000023002400250026103A28BF35
:1001500078C1FBD8520728BF30C148BF0B60704739
:100160001FB51FBD10B510BD00F058F81146FFF7C0
:10017000F7FF01F013FC00F076F803B4FFF7F2FF8D
:1001800003BC00F07DF8000009488047094800479B
:10019000FEE7FEE7FEE7FEE7FEE7FEE7FEE7FEE737
:1001A000FEE7FEE704480549054A064B7047000094
:1001B00077190008ED000008F0000020F00600208C
:1001C000F0020020F00200204FF0000200B51346BC
:1001D00094469646203922BFA0E80C50A0E80C5067
:1001E000B1F12001BFF4F7AF090728BFA0E80C5018
:1001F00048BF0CC05DF804EB890028BF40F8042B11
:1002000008BF704748BF20F8022B11F0804F18BF7D
:1002100000F8012B7047704770477047754600F033
:100220002BF8AE4605006946534620F00700854688
:1002300018B020B5FFF7B6FFBDE820404FF000062C
:100240004FF000074FF000084FF0000B21F00701BE
:10025000AC46ACE8C009ACE8C009ACE8C009ACE801
:10026000C0098D46704710B50446AFF300802046A4
:10027000BDE81040FFF781BF004870478C000020A8
:1002800001491820ABBEFEE72600020070470000BF
:1002900070B5044600688168C943C90717D18168F1
:1002A00021F00101816000F037FD05460AE000BF42
:1002B00000F032FD401B022804D920688068C0434A
:1002C000C00706D020688068C043C007F0D0002077
:1002D00070BDA06A40F01000A062E06A40F001002A
:1002E000E062012070BD10B50146406A826A12F0DA
:1002F000500F05D0006A026BBDE810400846104759
:10030000816A41F40071816201688968C1F34241E8
:1003100007290CD1017B51B9816A21F48071816276
:10032000816AC90403D4816A41F00101816200F04D
:100330005BF910BD10B5406A816A41F040018162ED
:10034000C16A41F00401C16200F073F910BD10B53B
:10035000406A00F06DF910BDF8B50026044600961D
:1003600000688168C943C9072DD0816841F0010147
:100370008160164816490068B0FBF1F000E0401EAD
:1003800000900028FBD100F0C7FC054616E000BF36
:1003900000F0C2FC401B022810D920688068C043CE
:1003A000C0070BD0A06A40F01000A062E06A40F0E5
:1003B0000100E06284F824600120F8BD20688068B4
:1003C000C043C007E4D10020F8BD000014000020A5
:1003D00040420F00FEE70000014800F085BA00002F
:1003E0004800002030B590F840500124AC40C56B67
:1003F0006C60046863604368102B036803D09960E5
:100400000068C26030BD9A600068C16030BD70474E
:1004100072B6FEE7F8B500250446009590F8240072
:1004200001280BD0012084F824002046FFF730FF7C
:100430002046FFF791FF060002D050E00220F8BDF1
:10044000A06A20F4885040F00200A062022000F070
:1004500001FD25490968B1FBF0F0400000E0401EB5
:1004600000900028FBD12068816841F0080181607C
:1004700000F052FC074608E000F04EFCC01B0A28C2
:1004800003D920688068000715D4206880680007B9
:10049000F2D42068816841F00401816000F03CFCE6
:1004A000074612E000F038FCC01B0A280DD920686E
:1004B0008068400709D5A06A20F0020040F01000D3
:1004C000A06284F824500120F8BD206880684007AD
:1004D000E8D4A06A20F0020040F00100A06284F895
:1004E00024503046F8BD000014000020F8B5002468
:1004F000009490F824202546012A12D0012280F889
:1005000024204A681F23072A0DD20668776B521EE3
:1005100002EB820293409F430B6893401F43776333
:1005200019E00220F8BD06680D2A0AD2376BD21FE7
:1005300002EB820293409F430B6893401F43376353
:1005400009E0F76A0D3A02EB820293409F430B6881
:1005500093401F43F7620A68072306680A2A0AD3F2
:10056000F7680A3A02EB420293409F438B6893403C
:100570001F43F76008E0376902EB420293409F4354
:100580008B6893401F4337610A68102A01D0112AF3
:1005900020D1124B02689A4217D193681B0219D4DA
:1005A000936843F4000393600968102912D10C4941
:1005B0000C4A0968B1FBF2F101EB8101490000E04E
:1005C000491E00910029FBD104E0816A41F020011D
:1005D0008162012480F824502046F8BD00240140A7
:1005E0001400002040420F000F4910B588421AD174
:1005F0000E4C012105232288084601F039F9628852
:1006000005230121022001F033F9A28805230121ED
:10061000032001F02DF9E28805230121BDE81040F7
:10062000042001F025B910BD1800002000000020B2
:10063000704770472DE9F0414FF0000704003D4638
:100640007ED0A06A002628B9E66284F8246020469D
:1006500000F07EF82046FFF71BFEA16AC90600D411
:1006600020B1A06A40F01000A06269E0A16A21F404
:10067000885141F00201A1626268E169237B0A436B
:1006800047EA43010A43A1684FF48077B94209D091
:10069000012907D05FF0000194F814C0BCF1010FEC
:1006A00002D00AE03946F7E7F3B1A36A43F020032A
:1006B000A362E36A43F00103E3622368D3F804C052
:1006C0002CF4694C4CEA010CC3F804C021688B6817
:1006D000DFF870C003EA0C0313438B60A168B942D2
:1006E0000BD0012909D00CE0DFF85CC0A3690CEB4A
:1006F00043330B4343F40061DFE7218A0D05A5F581
:1007000080152168CB6A23F470032B43CB622168E8
:1007100089680E4B1940914208D1E662A16A21F026
:10072000020141F00101A162BDE8F081A06A20F060
:10073000020040F01000A062E06A40F00100E062B8
:100740000120F1E7FDF7E1FF00E0FFFFFE0E1FFFD4
:1007500070B586B000250646009501950295039573
:100760000068194988422DD11849886940F4007001
:100770008861886900F400700490886940F0040082
:1007800088618869694600F0040004900F20009099
:10079000032001900E4800F0C9F90F4C0D48C4E940
:1007A00000058020C4E90250400020618000C4E9B7
:1007B00005052046E56100F041F908B1FFF728FE84
:1007C0003462666206B070BD002401400010024031
:1007D0000008014008000240480000202DE9F047D1
:1007E000894604463B4900683B4F0E1D90468842AF
:1007F00001D0B84207D1306810F4702F03D0012522
:100800002846BDE8F08794F8240001280CD0012088
:1008100084F824002046FFF79FFD05004FF00000FC
:1008200004D084F82400EBE70220EAE7A16A40F64E
:100830000162914341F48071A1622168B94218D1EB
:10084000326812F4702F14D0A16A41F48011A162B1
:100850003168490505D5A16A21F4005141F4805160
:10086000A162A16AC9040AD5E16A21F00601E16228
:1008700006E0A26A22F48012A2624968E9E7E06217
:1008800084F82400216A15488862216A1448C862E5
:10089000216A1448086321686FF00200086020682C
:1008A000816841F480718160216843464A464C3139
:1008B000206A00F0F1F820688168C1F342410729FD
:1008C000816803D041F48011816099E741F4A0016F
:1008D000FAE700000024014000280140E702000878
:1008E0004F030008350300082DE9F05FC16B0C6869
:1008F00001680B68D0F840C0042202FA0CF2494D9E
:10090000DFF824A1494E4A4FDFF828B1DFF828E18B
:1009100022422CD05A072AD50A68920603D40A68C4
:1009200022F004020A600168A94201D1042219E000
:10093000514501D1402215E0B14202D14FF480620D
:1009400010E0B94202D14FF480420BE0594502D188
:100950004FF4802206E0714502D14FF4800201E09D
:100960004FF080622F4908394A60C16A3BE04FF07E
:10097000020808FA0CF818EA040F4FF000094FF0CB
:10098000010235D05FEA837832D50B689B0605D427
:100990000B6823F00A030B6080F821200168A9424C
:1009A00001D1022219E0514501D1202215E0B142C6
:1009B00002D14FF4007210E0B94202D14FF400525C
:1009C0000BE0594502D14FF4003206E0714502D1E7
:1009D0004FF4001201E04FF00072124908394A60EA
:1009E00080F82090816A00291AD0BDE8F05F08479E
:1009F000082505FA0CF5254212D01B0710D50B6807
:100A000023F00E030B6090F84010C36B02FA01F163
:100A10005960826380F8212080F82090016BE2E722
:100A2000BDE8F09F080002401C0002403000024078
:100A300044000240580002406C00024030B528B328
:100A400008C8134914221944B1FBF2F18900C163AB
:100A500010498163022141771A6843F6F0718A4395
:100A6000D0E900142143D0E902452C432143046915
:100A700021434469214384692143114319600021C2
:100A80004163012242770177084630BD012030BD25
:100A9000F8FFFDBF0000024070B5044690F820004A
:100AA000002501280CD0012084F8200094F8216052
:100AB0000020012E06D084F820000225284670BDB3
:100AC000022070BD022684F82160A06320680668B9
:100AD00026F0010606602046FFF784FCE06A002845
:100AE0002068016802D041F00E0106E021F0040107
:100AF00001602068016841F00A0101602068016816
:100B000041F001010160D9E770B5044600F004F935
:100B10000546601C02D004480078044400F0FCF84C
:100B2000401BA042FAD370BD080000202DE9F84F09
:100B3000DFF8B8910024A9F1040B23460F2709F12F
:100B4000040AABF1040EC9E00125A5402A40AA42DF
:100B50007DD1674ED1F804C0ACEB0608B44532D065
:100B600014DCBCF1030F3AD009DCBCF1000F2AD031
:100B7000BCF1010F1CD0BCF1020F31D11DE0BCF162
:100B8000110F17D0BCF1120F2AD119E0B8F5881F48
:100B900019D006DCB8F5803F15D0B8F5801F1FD1FD
:100BA00011E0B8F5001F0ED0B8F5041F18D10AE007
:100BB000CB6815E0CB681B1D12E0CB6808330FE053
:100BC000CB680C330CE08B682BB1012B4FF0080382
:100BD00003D0456104E0042302E0056100E0002346
:100BE000FF2A01D8064601E000F104064FEA840519
:100BF00001D9A5F12005D6F8008007FA05FC28EAFE
:100C00000C0803FA05F548EA0508C6F800804D68A7
:100C1000ED0062D5374DAE6946F00106AE61AD69B3
:100C200024F0030605F001050095334D06EB050C95
:100C3000DCF80850A607360F07FA06F825EA08057B
:100C4000DFF8B880404503D14FF0000817E044E0DA
:100C5000DFF8AC80404502D14FF001080FE0DFF82B
:100C6000A480404502D14FF0020808E0DFF89880E8
:100C7000404502D14FF0030801E04FF0040808FAA4
:100C800006F848EA0508CCF808804D68D9F80060F5
:100C9000ED024D4601D5164300E096432E604D68A7
:100CA000DAF80060AD02554601D5164300E09643E0
:100CB0002E604D68DBF80060AD035D4601D516433C
:100CC00000E096432E604D68DEF80060ED03754647
:100CD00001D5164300E096432E60641C0D682A4639
:100CE000E5407FF431AFBDE8F88F00000804014013
:100CF00000001110001002400000014000080140F7
:100D0000000C014000100140001401400AB10161D3
:100D100070470904FBE70000014880687047000045
:100D20000800002002488168027811448160704701
:100D300008000020074810B5016841F0100101606B
:100D4000032000F075F80F2000F006F800F024F8FA
:100D5000002010BD0020024070B50D4D04464FF438
:100D60007A712878B1FBF0F00A490968B1FBF0F01C
:100D700000F094FB48B9102C07D200222146501EE7
:100D800000F036F800206C6070BD012070BD0000DE
:100D900008000020140000200C4808B5816941F0CB
:100DA00001018161816901F001010091C16941F096
:100DB0008051C161C06900F08050009004484168D2
:100DC00021F0E06141F00071416008BD0010024077
:100DD00000000140002809DB00F01F0201219140C2
:100DE0004009800000F1E020C0F8001170470000C9
:100DF000F0B40E4B1B680C46C3F30223C3F1070586
:100E0000042D00D90425191D072901D2002300E073
:100E1000DB1E012606FA05F1491E214099409E403D
:100E2000761E16403143F0BC00F0A7BD0CED00E08B
:100E3000064900F0070208684FF6FF03184040EA31
:100E40000220034A10430860704700000CED00E0E8
:100E50000000FA0510B501460020234C012922D0DC
:100E6000022939D010291DD161682268D20119D513
:100E70001E48C1F38342C903805C0AD561681B4ADE
:100E8000C1F34041921E515C194AB2FBF1F1484353
:100E900001E0184948436168490203D44000032136
:100EA000B0FBF1F010BD226AC2F30121012903D188
:100EB000920701D5C80310BD022905D1626A9207C5
:100EC00002D549F6404010BD0329FCD121688903B1
:100ED000F9D54FF2244010BD00F01AF96168C1F352
:100EE0008131491C4900DBE700100240F01900087D
:100EF00000127A0000093D002DE9F843054600780C
:100F0000354CC00754D0E0690026C00008D4E06921
:100F100040F08050E061E069012600F080500090D0
:100F20002E480168C90512D40168804641F48071D9
:100F30000160FFF7F1FE074605E000BFFFF7ECFE9A
:100F4000C01B642823D8D8F80000C005F6D5206A55
:100F500010F4407021D0A98801F4407181421CD066
:100F6000206A1F49012220F440700A6000220A60B2
:100F70002062C00711D0FFF7CFFE074641F2883844
:100F800008E000BFFFF7C8FEC11B414502D903209E
:100F9000BDE8F883206A8007F4D5206A696820F4E8
:100FA0004070084320621EB1E06920F08050E0618B
:100FB0002878800705D56068A96820F44040084378
:100FC00060602878C00605D56068E96820F4800074
:100FD000084360600020DBE7001002400070004022
:100FE000400442422DE9F0470F46050061D0434ED0
:100FF000306800F00700B84209D2306820F00700DE
:1010000038433060306800F00700B84251D128689A
:101010003B4C810712D5400703D5606840F4E0607F
:1010200060602878000703D5606840F46050606015
:101030006068A96820F0F000084360602878C00765
:1010400028D06868012810D02168022810D08907AC
:1010500000292EDA616821F0030101436160FFF786
:101060005BFE804641F288390DE021688903EFE795
:101070008901EDE7FFF750FEA0EB0801494502D9D1
:101080000320BDE8F0876068696800F00C00B0EBF1
:10109000810FEFD1306800F00700B8420BD93068FB
:1010A00020F0070038433060306800F00700B84295
:1010B00001D00120E5E72878400705D56068E96898
:1010C00020F4E060084360602878000706D5606877
:1010D000296920F4605040EAC100606000F028F8FF
:1010E0006168084AC1F30311515CC84006490860B1
:1010F00006480068FFF730FE0020C2E700200240EB
:1011000000100240001A0008140000200C0000200B
:101110000448054900684968044AC1F3C221515C8A
:10112000C84070471400002000100240101A000848
:101130000E4A51680E4801F00C03042B11D0082B05
:101140000FD10C48C1F38343C903C05C0AD5516871
:10115000084AC1F34041921E515C054A5043B0FB1E
:10116000F1F0704704494843704700000010024006
:1011700000127A00DE19000800093D002DE9F84F41
:10118000040070D02078C04DC00749D06868C0F313
:101190008100012807D06868C0F38100022809D1C6
:1011A0006868C00306D52868800339D560680028C0
:1011B000E7D035E06068B0F5803F0BD010B1B0F5F6
:1011C000A02F11D0286820F480302860286820F4EF
:1011D000802002E0286840F480302860606890B188
:1011E000FFF79AFD06460AE0286840F48020286050
:1011F000F0E700BFFFF790FD801B642873D82868D4
:101200008003F7D50CE0FFF787FD064605E000BF39
:10121000FFF782FD801B6428F0D828688003F7D48C
:1012200020789A4E80074FF001094FF0000839D519
:10123000686810F00C0F07D06868C0F381000228BE
:1012400009D16868C00306D42868800714D52069CE
:10125000012808D110E02069B0B1C6F80090FFF76E
:101260005BFD074605E00AE1FFF756FDC01B0228BB
:10127000C4D828688007F7D52868616920F0F8008D
:1012800040EAC10028600DE0C6F80080FFF744FD89
:10129000074604E0FFF740FDC01B022823D828685A
:1012A0008007F7D4207800072CD57948A169D9B1F7
:1012B000C0F80090FFF730FD074604E0FFF72CFD73
:1012C000C01B02280FD8686A8007F7D571484FF411
:1012D000FA510068B0FBF1F0009000BF0098411E89
:1012E0000091FAD20EE080E0C0F80080FFF714FD14
:1012F000074604E0FFF710FDC01B022875D8686A96
:101300008007F7D42078400760D5E8690027C0003F
:1013100008D4E86940F08050E861E869012700F0EE
:10132000805000905C480168C90513D40168834669
:1013300041F480710160FFF7EFFC824606E000BFD8
:10134000FFF7EAFCA0EB0A0064284ED8DBF80000A7
:10135000C005F5D5E06801280AD008B1052813D0EA
:10136000286A20F001002862286A20F0040002E0C8
:10137000286A40F001002862E06841F2883B98B199
:10138000FFF7CAFC82460BE0286A40F0040028629E
:10139000EEE700BFFFF7C0FCA0EB0A0159455AD8A1
:1013A000286A8007F6D50CE0FFF7B6FC824605E018
:1013B000FFF7B2FCA0EB0A0159454CD8286A800718
:1013C000F6D41FB1E86920F08050E861E06988B385
:1013D0006968C1F38101022944D00228C6F86080FF
:1013E00004D0FFF799FC044638E034E0FFF794FCA2
:1013F000074604E0FFF790FCC01B02282BD82868A2
:101400008001F7D4206AB0F5803F05D16868A168F3
:1014100020F4003008436860D4E908010843696893
:1014200021F4741108436860C6F86090FFF774FCFB
:10143000044606E025E000BFFFF76EFC001B022813
:1014400009D828688001F7D51BE000BFFFF764FCCE
:10145000001B022802D90320BDE8F88F286880010C
:10146000F4D40EE00128F7D06868226A00F48031D5
:10147000914204D1616A00F47010884201D00120C9
:10148000EAE70020E8E700000010024000004242C6
:1014900080044242140000200070004010B5401E3D
:1014A000B0F1807F01D3012010BD4FF0E0246061D6
:1014B0000F21601700F061FA0020A0610720206171
:1014C000002010BDFEE700003EB500242048009437
:1014D00001941E49029401608915816004730475AA
:1014E000042505614FF460214460C161FFF7A2F853
:1014F00008B1FEF78DFF009401240520CDE90140DD
:1015000069461348FEF7F2FF08B1FEF781FF009429
:10151000022469460E480194FEF7E8FF08B1FEF781
:1015200077FF00940324694609480194FEF7DEFF23
:1015300008B1FEF76DFF69460548CDE90045FEF7A5
:10154000D5FF002801D0FEF763FF3EBD0024014017
:1015500018000020094808B5416941F001014161C6
:101560004069002200F00100009011460B20FFF7B7
:101570003FFCBDE808400B20FFF72CBC00100240E8
:1015800070B586B00024204800940194029403941E
:10159000816941F020018161816901F0200104919C
:1015A000816941F004018161816901F004010491C4
:1015B000816941F0080181618069144E00F00800E2
:1015C0000490002240213046FFF7A0FB01224FF497
:1015D00060713046FFF79AFBC02000900125CDE9ED
:1015E00001540224694630460394FFF79FFA4FF4F2
:1015F0004070009011200394CDE901056946304602
:10160000FFF794FA06B070BD00100240000C0140D4
:10161000FEE7FEE770B500240021204600F0E3F865
:101620000025002000F056F96D1CEDB2802DF8D396
:10163000641CE4B2082CEFD370BD000010B5FFF7B6
:101640009FFF064C012211022046FFF75FFB204658
:101650000122BDE810405102FFF758BB000C0140C9
:101660002DE9F047164E002407464FF080084FF44E
:101670000079B51528FA04F0384201D0012200E0C3
:10168000002249463046FFF741FB012229463046F9
:10169000FFF73CFB002229463046FFF737FB641C6E
:1016A000E4B2082CE6D3012229463046FFF72EFB90
:1016B00029463046BDE8F0470022FFF727BB00006F
:1016C000000C014070B501220B4D54022146284602
:1016D000FFF71CFB0122160231462846FFF716FBD6
:1016E000002221462846FFF711FB31462846BDE877
:1016F00070400022FFF70ABB000C014070B50A4D94
:101700004FF40074002221462846FFF7FFFA012219
:1017100011022846FFF7FAFA21462846BDE8704034
:101720000122FFF7F3BA0000000C014010B50020C1
:101730004FF47A720021491C9142FCD3401C904224
:10174000F8D3FFF77BFFAE2000F0B3F8D52000F010
:10175000B0F8802000F0ADF8A82000F0AAF83F20F3
:1017600000F0A7F8D32000F0A4F8002000F0A1F8C2
:10177000402000F09EF8A12000F09BF8C82000F067
:1017800098F8DA2000F095F8122000F092F8812005
:1017900000F08FF8CF2000F08CF8D92000F089F805
:1017A000F12000F086F8DB2000F083F8302000F014
:1017B00080F8A42000F07DF8A62000F07AF88D20B3
:1017C00000F077F8142000F074F8AF2000F071F802
:1017D000BDE81040FFF71EBF0246012000E0504365
:1017E000491EFCD2704710B50C4640F0B00000F026
:1017F00060F8102040EA141000F05BF804F00F00CD
:10180000BDE8104000F055B82DE9F0410746CE0084
:101810004000083E801E15464FF0FF38F1B2C0B2BE
:10182000FFF7E1FF1148002400EB05152819A0F58A
:10183000805090F8000E00F04DF8641CE4B2082CC3
:10184000F4D308EB4700F1B2C0B2FFF7CCFF00249D
:101850002819A0F5805090F8080E00F03BF8641CA1
:10186000E4B2082CF4D3BDE8F0810000181A000897
:101870002DE9F04700241D461646884681460A2772
:1018800013E0291B0A20491EFFF7A6FFB6FBF0F064
:10189000B0FBF7F107FB110208EB0400C1B24846A8
:1018A0003032FFF7B1FF641CE4B2AC42E9D3BDE8CB
:1018B000F08710B50446FFF705FF7820FFF7D0FE4C
:1018C0000020FFF7CDFE2046FFF7CAFEBDE810401E
:1018D000FFF714BF10B50446FFF7F4FE7820FFF7BA
:1018E000BFFE4020FFF7BCFE2046FFF7B9FEBDE873
:1018F0001040FFF703BF70477047FFF713BA30B5CA
:1019000093B028216846FEF75FFC14210AA8FEF771
:101910005BFC002501200F9510951195010412958F
:101920008DE8230004904FF4E010CDE90810022464
:1019300007946846FFF722FC08B172B6FEE70AA9D1
:101940000F2081E831004FF48060CDE90D050221C0
:101950000AA8FFF747FB08B172B6FEE74FF4004054
:1019600011900F940FA8FFF7C7FA002801D072B6A4
:10197000FEE713B030BD7047FEE70907090E0028E7
:1019800004DB00F1E02080F80014704700F00F0045
:1019900000F1E02080F8141D70470000FFF7CAF93D
:1019A000FFF7ADFFFFF7ECFDFFF7D4FDFFF78CFD70
:1019B000FFF7BCFEFFF72EFE0648FEF72BFD4FF4A7
:1019C0007A74042204490348FEF708FF2046FFF713
:1019D0009BF8F6E718000020000000200102020337
:1019E0000405060708090A0B0C0D0E0F1010010262
:1019F00002030405060708090A0B0C0D0E0F101050
:101A000000000000000000000102030406070809AE
:101A100000000000010203040000000000000000BC
:101A20000000000000000000000000F800000000BE
:101A3000000000333000000000100C06100C0600FF
:101A4000000000000000000040C07840C078400066
:101A5000043F04043F040400007088FC08300000C8
:101A6000001820FF211E0000F008F000E018000020
:101A700000211C031E211E0000F0088870000000D9
:101A80001E2123241927211010160E00000000002B
:101A90000000000000000000000000E01804020048
:101AA000000000071820400000020418E0000000B9
:101AB0000040201807000000404080F080404000B7
:101AC0000202010F01020200000000F0000000000D
:101AD0000101011F010101000000000000000000E1
:101AE00080B0700000000000000000000000000056
:101AF00000010101010101010000000000000000DF
:101B00000030300000000000000000008060180479
:101B1000006018060100000000E010080810E00056
:101B2000000F102020100F00001010F8000000001F
:101B30000020203F20200000007008080888700066
:101B400000302824222130000030088888483000E6
:101B50000018202020110E000000C02010F8000006
:101B600000070424243F240000F80888880808009F
:101B70000019212020110E0000E0108888180000B4
:101B8000000F112020110E0000380808C838080086
:101B90000000003F00000000007088080888700006
:101BA000001C222121221C0000E010080810E00087
:101BB0000000312222110F00000000C0C000000010
:101BC0000000003030000000000000800000000035
:101BD000000080600000000000008040201008002D
:101BE00000010204081020004040404040404000F6
:101BF00004040404040404000008102040800000D1
:101C00000020100804020100007048080808F000D5
:101C10000000003036010000C030C828E810E000A5
:101C20000718272423140B000000C038E000000030
:101C3000203C23020227382008F88888887000009A
:101C4000203F202020110E00C0300808080838006E
:101C5000071820202010080008F808080810E000E5
:101C6000203F202020100F0008F88888E808100086
:101C7000203F20202320180008F88888E80810005A
:101C8000203F200003000000C03008080838000092
:101C900007182020221E020008F808000008F80893
:101CA000203F210101213F20000808F8080800001A
:101CB0000020203F2020000000000808F80808004D
:101CC000C08080807F00000008F888C028180800C5
:101CD000203F20012638200008F8080000000000FE
:101CE000203F20202020300008F8F800F8F80800F5
:101CF000203F003F003F200008F830C00008F808EF
:101D0000203F200007183F00E01008080810E000FE
:101D10000F10202020100F0008F808080808F00015
:101D2000203F210101010000E01008080810E00038
:101D30000F18242438504F0008F8888888887000CD
:101D4000203F2000030C302000708808080838006D
:101D50000038202121221C00180808F80808180063
:101D60000000203F2000000008F808000008F808E4
:101D7000001F202020201F000878880000C8380895
:101D8000000007380E010000F80800F80008F8000D
:101D9000033C0700073C03000818688080681808A7
:101DA00020302C03032C30200838C800C838080025
:101DB0000000203F2000000010080808C838080074
:101DC0002038262120201800000000FE0202020018
:101DD0000000007F40404000000C30C000000000C8
:101DE000000000010638C00000020202FE000000F0
:101DF000004040407F000000000004020202040096
:101E000000000000000000000000000000000000D2
:101E100080808080808080800002020400000000BA
:101E200000000000000000000000808080800000B2
:101E30000019242222223F2008F8008080000000A0
:101E4000003F112020110E00000000808080000063
:101E5000000E112020201100000000808088F80072
:101E6000000E112020103F200000808080800000A4
:101E7000001F222222221300008080F08888881808
:101E80000020203F20200000000080808080800013
:101E9000006B94949493600008F8008080800000A8
:101EA000203F210000203F20008098980000000083
:101EB0000020203F202000000000008098980000B3
:101EC00000C08080807F000008F8000080808000D3
:101ED000203F24022D302000000808F800000000F8
:101EE0000020203F202000008080808080808000B3
:101EF000203F20003F20003F808000808080000045
:101F0000203F210000203F200000808080800000D2
:101F1000001F202020201F00808000808000000003
:101F200080FFA12020110E00000000808080800032
:101F3000000E112020A0FF80808080008080800023
:101F400020203F2120000100000080808080800050
:101F50000033242424241900008080E080800000C5
:101F60000000001F20200000808000000080800012
:101F7000001F202020103F20808080000080808073
:101F800000010E3008060100808000800080808003
:101F90000F300C030C300F00008080008080800028
:101FA0000020312E0E312000808080000080808053
:101FB00080818E7018060100008080808080800003
:101FC0000021302C2221300000000000807C020221
:101FD00000000000003F404000000000FF00000043
:101FE00000000000FF0000000002027C80000000F2
:101FF0000040403F0000000000060101020204040E
:102000000000000000000000282000080000002060
:1020100018000000280100084020000818000020D7
:10202000D806000044010008000000000000000085
:1020300001000000100000000000000000127A0003
:04000005080000ED02
:00000001FF
