:020000040800F2
:1000000088060020890100088B0F0008930E000865
:10001000890F00088F020008671100080000000027
:10002000000000000000000000000000DF100008D9
:1000300091020008000000008D0F0008E110000888
:10004000A3010008A3010008A3010008A301000800
:10005000A3010008A3010008A3010008A3010008F0
:10006000A3010008A3010008A3010008A3010008E0
:10007000A3010008A3010008A3010008A3010008D0
:10008000A3010008A3010008A3010008A3010008C0
:10009000A3010008A3010008A3010008A3010008B0
:1000A000A3010008A3010008A3010008A3010008A0
:1000B000A3010008A3010008A3010008A301000890
:1000C000A3010008A3010008A3010008A301000880
:1000D000A3010008A3010008A3010008A301000870
:1000E000A3010008A3010008A301000800F002F822
:1000F00000F03AF80AA090E8000C82448344AAF188
:100100000107DA4501D100F02FF8AFF2090EBAE885
:100110000F0013F0010F18BFFB1A43F0010318473B
:10012000B8100000D8100000103A24BF78C878C179
:10013000FAD8520724BF30C830C144BF04680C60ED
:10014000704700000023002400250026103A28BF35
:1001500078C1FBD8520728BF30C148BF0B60704739
:100160001FB51FBD10B510BD00F058F81146FFF7C0
:10017000F7FF01F009F800F076F803B4FFF7F2FF9B
:1001800003BC00F07DF8000009488047094800479B
:10019000FEE7FEE7FEE7FEE7FEE7FEE7FEE7FEE737
:1001A000FEE7FEE704480549054A064B7047000094
:1001B00065110008ED000008880000208806002076
:1001C00088020020880200204FF0000200B513468C
:1001D00094469646203922BFA0E80C50A0E80C5067
:1001E000B1F12001BFF4F7AF090728BFA0E80C5018
:1001F00048BF0CC05DF804EB890028BF40F8042B11
:1002000008BF704748BF20F8022B11F0804F18BF7D
:1002100000F8012B7047704770477047754600F033
:100220002BF8AE4605006946534620F00700854688
:1002300018B020B5FFF7B6FFBDE820404FF000062C
:100240004FF000074FF000084FF0000B21F00701BE
:10025000AC46ACE8C009ACE8C009ACE8C009ACE801
:10026000C0098D46704710B50446AFF300802046A4
:10027000BDE81040FFF781BF004870472400002010
:1002800001491820ABBEFEE7260002007047FEE7DA
:10029000704772B6FEE700002DE9F84FDFF8B8911D
:1002A0000024A9F1040B23460F2709F1040AABF13E
:1002B000040EC9E00125A5402A40AA427DD1674E1F
:1002C000D1F804C0ACEB0608B44532D014DCBCF164
:1002D000030F3AD009DCBCF1000F2AD0BCF1010FAA
:1002E0001CD0BCF1020F31D11DE0BCF1110F17D0B1
:1002F000BCF1120F2AD119E0B8F5881F19D006DC1D
:10030000B8F5803F15D0B8F5801F1FD111E0B8F5C2
:10031000001F0ED0B8F5041F18D10AE0CB6815E015
:10032000CB681B1D12E0CB6808330FE0CB680C33A1
:100330000CE08B682BB1012B4FF0080303D0456113
:1003400004E0042302E0056100E00023FF2A01D855
:10035000064601E000F104064FEA840501D9A5F143
:100360002005D6F8008007FA05FC28EA0C0803FAF5
:1003700005F548EA0508C6F800804D68ED0062D52D
:10038000374DAE6946F00106AE61AD6924F0030653
:1003900005F001050095334D06EB050CDCF808501F
:1003A000A607360F07FA06F825EA0805DFF8B88031
:1003B000404503D14FF0000817E044E0DFF8AC807F
:1003C000404502D14FF001080FE0DFF8A48040451E
:1003D00002D14FF0020808E0DFF89880404502D1D2
:1003E0004FF0030801E04FF0040808FA06F848EA65
:1003F0000508CCF808804D68D9F80060ED024D463C
:1004000001D5164300E096432E604D68DAF800608F
:10041000AD02554601D5164300E096432E604D6867
:10042000DBF80060AD035D4601D5164300E096435E
:100430002E604D68DEF80060ED03754601D5164369
:1004400000E096432E60641C0D682A46E5407FF468
:1004500031AFBDE8F88F0000080401400000111022
:10046000001002400000014000080140000C014063
:1004700000100140001401400AB1016170470904F5
:10048000FBE7000001488068704700000000002082
:1004900002488168027811448160704700000020A2
:1004A000074810B5016841F010010160032000F019
:1004B00067F80F2000F006F800F024F8002010BDC7
:1004C0000020024070B50D4D04464FF47A71287833
:1004D000B1FBF0F00A490968B1FBF0F000F0C5FC8F
:1004E00048B9102C07D200222146501E00F028F8EF
:1004F00000206C6070BD012070BD00000000002075
:100500000C0000200C4808B5816941F001018161AF
:10051000816901F001010091C16941F08051C1611F
:10052000C06900F0805000900448416821F0E0610B
:1005300041F00071416008BD001002400000014020
:10054000F0B40E4B1B680C46C3F30223C3F107053E
:10055000042D00D90425191D072901D2002300E02C
:10056000DB1E012606FA05F1491E214099409E40F6
:10057000761E16403143F0BC00F0F6BD0CED00E0F5
:10058000064900F0070208684FF6FF03184040EAEA
:100590000220034A10430860704700000CED00E0A1
:1005A0000000FA05014901200862704700000E4270
:1005B00010B501460020234C012922D0022939D050
:1005C00010291DD161682268D20119D51E48C1F3D6
:1005D0008342C903805C0AD561681B4AC1F340416C
:1005E000921E515C194AB2FBF1F1484301E01849EF
:1005F00048436168490203D440000321B0FBF1F095
:1006000010BD226AC2F30121012903D1920701D54D
:10061000C80310BD022905D1626A920702D549F6C6
:10062000404010BD0329FCD121688903F9D54FF260
:10063000244010BD00F01AF96168C1F38131491CF2
:100640004900DBE700100240AE11000800127A00FA
:1006500000093D002DE9F84305460078354CC007F8
:1006600054D0E0690026C00008D4E06940F0805012
:10067000E061E069012600F0805000902E4801689A
:10068000C90512D40168804641F480710160FFF70A
:10069000F9FE074605E000BFFFF7F4FEC01B642823
:1006A00023D8D8F80000C005F6D5206A10F44070B1
:1006B00021D0A98801F4407181421CD0206A1F49D1
:1006C000012220F440700A6000220A602062C00704
:1006D00011D0FFF7D7FE074641F2883808E000BF87
:1006E000FFF7D0FEC11B414502D90320BDE8F883C6
:1006F000206A8007F4D5206A696820F440700843B6
:1007000020621EB1E06920F08050E0612878800707
:1007100005D56068A96820F44040084360602878E7
:10072000C00605D56068E96820F480000843606071
:100730000020DBE70010024000700040400442420D
:100740002DE9F0470F46050061D0434E306800F0B8
:100750000700B84209D2306820F007003843306003
:10076000306800F00700B84251D128683B4C81073F
:1007700012D5400703D5606840F4E06060602878D7
:10078000000703D5606840F4605060606068A96845
:1007900020F0F000084360602878C00728D068681F
:1007A000012810D02168022810D0890700292EDAEC
:1007B000616821F0030101436160FFF763FE804639
:1007C00041F288390DE021688903EFE78901EDE7FF
:1007D000FFF758FEA0EB0801494502D90320BDE808
:1007E000F0876068696800F00C00B0EB810FEFD112
:1007F000306800F00700B8420BD9306820F00700DD
:1008000038433060306800F00700B84201D0012062
:10081000E5E72878400705D56068E96820F4E060DE
:10082000084360602878000706D56068296920F4CD
:10083000605040EAC100606000F028F86168084A32
:10084000C1F30311515CC8400649086006480068BE
:10085000FFF738FE0020C2E70020024000100240EF
:10086000BE1100080C0000200400002004480549C7
:1008700000684968044AC1F3C221515CC84070470E
:100880000C00002000100240CE1100080E4A5168F2
:100890000E4801F00C03042B11D0082B0FD10C488B
:1008A000C1F38343C903C05C0AD55168084AC1F348
:1008B0004041921E515C054A5043B0FBF1F0704735
:1008C00004494843704700000010024000127A00BB
:1008D0009C11000800093D002DE9F84F040070D07C
:1008E0002078C04DC00749D06868C0F38100012856
:1008F00007D06868C0F38100022809D16868C00386
:1009000006D52868800339D560680028E7D035E02F
:100910006068B0F5803F0BD010B1B0F5A02F11D0BA
:10092000286820F480302860286820F4802002E0C5
:10093000286840F480302860606890B1FFF7A2FD1D
:1009400006460AE0286840F480202860F0E700BFEF
:10095000FFF798FD801B642873D828688003F7D5BB
:100960000CE0FFF78FFD064605E000BFFFF78AFDAC
:10097000801B6428F0D828688003F7D420789A4E2A
:1009800080074FF001094FF0000839D5686810F072
:100990000C0F07D06868C0F38100022809D168688D
:1009A000C00306D42868800714D52069012808D11F
:1009B00010E02069B0B1C6F80090FFF763FD07466C
:1009C00005E00AE1FFF75EFDC01B0228C4D82868D5
:1009D0008007F7D52868616920F0F80040EAC10077
:1009E00028600DE0C6F80080FFF74CFD074604E0E4
:1009F000FFF748FDC01B022823D828688007F7D4DA
:100A0000207800072CD57948A169D9B1C0F80090A9
:100A1000FFF738FD074604E0FFF734FDC01B02284E
:100A20000FD8686A8007F7D571484FF4FA5100680B
:100A3000B0FBF1F0009000BF0098411E0091FAD287
:100A40000EE080E0C0F80080FFF71CFD074604E0E0
:100A5000FFF718FDC01B022875D8686A8007F7D415
:100A60002078400760D5E8690027C00008D4E8690D
:100A700040F08050E861E869012700F08050009064
:100A80005C480168C90513D40168834641F480714C
:100A90000160FFF7F7FC824606E000BFFFF7F2FCBB
:100AA000A0EB0A0064284ED8DBF80000C005F5D59D
:100AB000E06801280AD008B1052813D0286A20F080
:100AC00001002862286A20F0040002E0286A40F051
:100AD00001002862E06841F2883B98B1FFF7D2FC40
:100AE00082460BE0286A40F004002862EEE700BF6F
:100AF000FFF7C8FCA0EB0A0159455AD8286A8007BD
:100B0000F6D50CE0FFF7BEFC824605E0FFF7BAFC25
:100B1000A0EB0A0159454CD8286A8007F6D41FB1CA
:100B2000E86920F08050E861E06988B36968C1F342
:100B30008101022944D00228C6F8608004D0FFF762
:100B4000A1FC044638E034E0FFF79CFC074604E0D3
:100B5000FFF798FCC01B02282BD828688001F7D427
:100B6000206AB0F5803F05D16868A16820F40030A4
:100B700008436860D4E908010843696821F47411E6
:100B800008436860C6F86090FFF77CFC044606E006
:100B900025E000BFFFF776FC001B022809D8286873
:100BA0008001F7D51BE000BFFFF76CFC001B02289B
:100BB00002D90320BDE8F88F28688001F4D40EE044
:100BC0000128F7D06868226A00F48031914204D18C
:100BD000616A00F47010884201D00120EAE7002029
:100BE000E8E7000000100240000042428004424258
:100BF0000C0000200070004070B5040003D0607C41
:100C0000002610B105E0012070BD2674204600F0DA
:100C10003DF802206074204600F00AF9042550BB1C
:100C2000204600F0BDF930BB2068416821F0070183
:100C30004160A06820B11448016821F00101016001
:100C40001148001F0168A26821F46071114301601E
:100C50006068411C04D10120FFF7AAFC58B1401E76
:100C60002268C0F303419160216880B2C8602046C9
:100C700000F0B0F908B16574C5E7E6730120607350
:100C8000A0736074002070BD306C004008B500682F
:100C9000084988420DD1FFF785FC0748C16941F03A
:100CA0000061C161C069054900F000600090012049
:100CB000086008BD00280040001002403C04424289
:100CC0002DE9F0410D4604003BD0C5B3207C01283E
:100CD0003AD04FF0010884F8108002206074E87860
:100CE00072B300F054F9E073687800F050F9607363
:100CF000A87800F04CF9A073C2B2617BE07B00F0F1
:100D00009BF920732870204600F086F94FF461614A
:100D1000B0FBF1F1002518292DD91822B1FBF2F111
:100D2000A1EB011101EB4101C1EB011100EBC11677
:100D30003146204600F0BFF90427C8B90BE000E0B7
:100D400004E00120BDE8F0810220FBE7E073687851
:100D50006073A878CFE7204600F057F9411C0AD00D
:100D6000B04208D206490144204600F090F910B183
:100D700067742574E5E784F8118025740020E1E7A5
:100D8000805101002DE9F0410D46040024D01DB32F
:100D9000207C012823D04FF0010884F81080022025
:100DA00060742878EAB100F0F2F84FF4616100FB5A
:100DB00001F6687800F0EBF8C0EB001006EB800657
:100DC000A87800F0E4F835182946204600F073F9B9
:100DD0000026042710BB0FE00120BDE8F0810220AF
:100DE000FBE74FF4616148436978C1EB011100EB07
:100DF0008100A9784518E7E72068416821F00501DE
:100E00004160204600F001F9411C0AD0A84208D2F6
:100E100006490144204600F03AF910B1677426747F
:100E2000DAE784F8118026740020D6E780510100AB
:100E300070B504000AD02068416821F008014160C3
:100E4000FFF720FB05464FF47A7608E0012070BDDD
:100E5000FFF718FB401BB04201D9032070BD20688A
:100E600040680007F4D5002070BD10B5401EB0F1F9
:100E7000807F01D3012010BD4FF0E02460610F217D
:100E8000601700F071F90020A061072020610020A8
:100E900010BDFEE770B586B000241C480094019494
:100EA00002940394816941F010018161816901F02C
:100EB00010010491816941F020018161816901F093
:100EC00020010491816941F004018161816901F08F
:100ED00004010491816941F00801816180690C4E2F
:100EE00000F008004FF44075049000222946304677
:100EF000FFF7C2FA01200095CDE90104022003901A
:100F000069463046FFF7C8F906B070BD00100240D0
:100F1000000C01401CB500241A48019418490094A3
:100F20000160611E41604FF480718160FFF764FED3
:100F300008B1FFF7AEF913208DF804008DF80540D5
:100F40008DF80640002201A90E48FFF71BFF08B1EB
:100F5000FFF79FF905208DF800008DF801000120B2
:100F60008DF802001A208DF803000022694605481A
:100F7000FFF7A6FE002801D0FFF78BF91CBD00008B
:100F80000028004010000020FEE7FEE7704701093E
:100F900001EB810100F00F0000EB4100C0B270478F
:100FA00070B50446FFF76EFA05464FF47A7606E010
:100FB000FFF768FA401BB04201D9032070BD2068DA
:100FC00040688006F4D52068416841F01001416016
:100FD000002070BD70B504460068416821F0100122
:100FE0004160FFF74FFA05464FF47A7607E000BFFD
:100FF000FFF748FA401BB04201D9032070BD2068BA
:1010000040688006F4D5002070BD0168086A496A0E
:1010100089B241EA00407047006881698AB2C169BB
:101020008BB2816989B28A4203D0C06961F31F40E3
:10103000704743EA02407047F0B56424C1EBC10336
:101040000927A500072603EB01130329B3FBF7F1DA
:1010500000F5FA60114401440AD2401EB0FBF4F2DC
:1010600001EB9001B0FBF5F0891A0844001D08E07F
:10107000B0FBF4F201EB9001B0FBF5F0891A0844E3
:10108000801CB0FBF6F106FB1100C0B2F0BD70B5DC
:101090000D4606460024FFF783FF48B93168280C47
:1010A00008623168A8B248623046FFF793FF00B18A
:1010B0000124204670BD70B50D4606460024FFF79A
:1010C0006FFF48B93168280C88613168A8B2C861DF
:1010D0003046FFF77FFF00B10124204670BD704706
:1010E000FFF7D6B970B594B028216846FFF76CF8C1
:1010F00014210AA8FFF768F8002501240F9511951F
:10110000052012950090CDE9025410954FF48030DF
:10111000019002260494CDE907604FF4E010099095
:101120006846FFF7D9FB08B172B6FEE70F20CDE99C
:101130000A064FF48060CDE90C5002210AA80E95F2
:10114000FFF7FEFA08B172B6FEE74FF48070CDE902
:101150000F400FA8FFF77EFA002801D072B6FEE715
:1011600014B070BD7047FEE70907090E002804DBC4
:1011700000F1E02080F80014704700F00F0000F14B
:10118000E02080F8141D7047FFF78AF9FFF7AAFFE7
:10119000FFF780FEFFF7BEFEFEE701020203040533
:1011A000060708090A0B0C0D0E0F101001020203AE
:1011B0000405060708090A0B0C0D0E0F101000009D
:1011C00000000000000001020304060708090000F7
:1011D0000000010203040000F811000800000020D4
:1011E000100000002801000808120008100000206C
:1011F0007806000044010008010000001000000013
:081200000000000000127A005A
:04000005080000ED02
:00000001FF
