:020000040800F2
:100000009006002089010008F70D0008810D000806
:10001000F50D0008B70200088B1000080000000072
:100020000000000000000000000000002510000893
:10003000B902000800000000231000082710000883
:10004000A3010008A3010008A3010008A301000800
:10005000A3010008A3010008A3010008A3010008F0
:10006000A3010008A3010008A3010008A3010008E0
:10007000A3010008A3010008A3010008A3010008D0
:10008000A3010008A3010008A3010008A3010008C0
:10009000A3010008A3010008A3010008A3010008B0
:1000A000A3010008A3010008A3010008A3010008A0
:1000B000A3010008A3010008A3010008A301000890
:1000C000A3010008A3010008A3010008A301000880
:1000D000A3010008A3010008A3010008A301000870
:1000E000A3010008A3010008A301000800F002F822
:1000F00000F03AF80AA090E8000C82448344AAF188
:100100000107DA4501D100F02FF8AFF2090EBAE885
:100110000F0013F0010F18BFFB1A43F0010318473B
:10012000E80F000008100000103A24BF78C878C11A
:10013000FAD8520724BF30C830C144BF04680C60ED
:10014000704700000023002400250026103A28BF35
:1001500078C1FBD8520728BF30C148BF0B60704739
:100160001FB51FBD10B510BD00F06BF81146FFF7AD
:10017000F7FF00F09BFF00F089F803B4FFF7F2FFF0
:1001800003BC00F091F80000094880470948004787
:10019000FEE7FEE7FEE7FEE7FEE7FEE7FEE7FEE737
:1001A000FEE7FEE704480549054A064B7047000094
:1001B00089100008ED000008900000209006002043
:1001C0009002002090020020B2F120030AD5C2F173
:1001D000200320FA02F001FA03F321FA02F140EAC7
:1001E0000300704721FA03F04FF0000170474FF011
:1001F000000200B5134694469646203922BFA0E877
:100200000C50A0E80C50B1F12001BFF4F7AF090782
:1002100028BFA0E80C5048BF0CC05DF804EB890073
:1002200028BF40F8042B08BF704748BF20F8022BB6
:1002300011F0804F18BF00F8012B704770477047CE
:100240007047754600F02CF8AE46050069465346E7
:1002500020F00700854618B020B5FFF7A3FFBDE8E2
:1002600020404FF000064FF000074FF000084FF01D
:10027000000B21F00701AC46ACE8C009ACE8C009AE
:10028000ACE8C009ACE8C0098D46704710B504461B
:10029000AFF300802046BDE81040FFF76EBF0000BE
:1002A000004870473000002001491820ABBEFEE72F
:1002B000260002007047FEE7704700000649002054
:1002C000C8610648016941F004010161016941F01A
:1002D0004001016170470000100000200020024032
:1002E000064A0021D16106490A6942F002020A6108
:1002F0004861086940F04000086170471000002024
:1003000000200240044B0022DA61044A136943F0E2
:10031000010313610180704710000020002002409B
:1003200014480022C168CB06134904D5CA6942F0BB
:100330000202CA611022C3685B0705D5CB6943F08E
:100340000103CB6142F00402C369DB0707D0CB692C
:1003500043F00403CB61C16921F00101C161A2F541
:100360008071013901D0C2607047C16921F001017B
:10037000C1617047002002401000002070B50546A2
:1003800000F00EFA0646114C09E0681C07D025B1B2
:1003900000F006FA801BA84201D9032070BDE06876
:1003A000C007F2D1E068800601D52020E060E06857
:1003B000C00605D4E069C00702D1E068400703D554
:1003C000FFF7AEFF012070BD002070BD002002408D
:1003D00030B585B000250446049500F0D7F801201B
:1003E000CDE9024004A90095684600F031F80446C2
:1003F00000F082F805B0204630BD00002DE9F04144
:1004000016468846044600F0C1F807001DD117E0E3
:100410000022104608E000BF18F80110C300994000
:100420000A43401C042802D22918B142F4D3002305
:100430002146022000F06AF8070003D1241D2D1D7B
:10044000B542E5D300F058F83846BDE8F081000029
:100450002DE9F047054626480F460126017E012971
:100460000FD00121814601762868DFF888804CF2A0
:100470005034022808D0A2462046FFF77FFFA8B1DB
:1004800031E00220BDE8F0872046FFF777FF08BB88
:100490000120FFF713FF2046FFF770FFD8F8101078
:1004A000064621F00401C8F810101CE04FF0FF30A0
:1004B0003860AC6811E02046FFF712FF5046FFF7A6
:1004C0005DFFD8F81010060021F00201C8F81010E6
:1004D00001D03C6007E004F58064D5E9020100EB3F
:1004E0008120A042E7D8002189F818103046C9E7DA
:1004F00010000020002002400348016941F0800103
:100500000161002070470000002002402DE9F05FEB
:1005100007461C4888460024017E15461E460129D0
:1005200009D00121814601764CF2503A5046FFF73E
:1005300025FF18B122E00220BDE8F09F012F02D074
:10054000022F00D00427D346DFF83CA02201284622
:100550003146FFF739FE81B208EB4400FFF7D2FEC7
:100560005846FFF70BFFDAF8102022F00102CAF814
:10057000102018B9641CE4B2BC42E7D3002289F809
:100580001820D9E710000020002002400649002072
:100590000A69120607D5054A4A60054A4A60096990
:1005A000090600D50120704700200240230167455D
:1005B000AB89EFCD2DE9F84FDFF8B8910024A9F110
:1005C000040B23460F2709F1040AABF1040EC9E01E
:1005D0000125A5402A40AA427DD1674ED1F804C02A
:1005E000ACEB0608B44532D014DCBCF1030F3AD0B2
:1005F00009DCBCF1000F2AD0BCF1010F1CD0BCF10A
:10060000020F31D11DE0BCF1110F17D0BCF1120F58
:100610002AD119E0B8F5881F19D006DCB8F5803F5B
:1006200015D0B8F5801F1FD111E0B8F5001F0ED00E
:10063000B8F5041F18D10AE0CB6815E0CB681B1D84
:1006400012E0CB6808330FE0CB680C330CE08B680A
:100650002BB1012B4FF0080303D0456104E00423C4
:1006600002E0056100E00023FF2A01D8064601E010
:1006700000F104064FEA840501D9A5F12005D6F85A
:10068000008007FA05FC28EA0C0803FA05F548EA99
:100690000508C6F800804D68ED0062D5374DAE699B
:1006A00046F00106AE61AD6924F0030605F00105D0
:1006B0000095334D06EB050CDCF80850A607360F05
:1006C00007FA06F825EA0805DFF8B880404503D1A7
:1006D0004FF0000817E044E0DFF8AC80404502D15D
:1006E0004FF001080FE0DFF8A480404502D14FF041
:1006F000020808E0DFF89880404502D14FF0030877
:1007000001E04FF0040808FA06F848EA0508CCF8BA
:1007100008804D68D9F80060ED024D4601D51643BA
:1007200000E096432E604D68DAF80060AD02554651
:1007300001D5164300E096432E604D68DBF800605B
:10074000AD035D4601D5164300E096432E604D682B
:10075000DEF80060ED03754601D5164300E09643D0
:100760002E60641C0D682A46E5407FF431AFBDE879
:10077000F88F000008040140000011100010024032
:100780000000014000080140000C01400010014041
:10079000001401400AB1016170470904FBE7000041
:1007A000014880687047000000000020024881680E
:1007B000027811448160704700000020074810B59E
:1007C000016841F010010160032000F067F80F207C
:1007D00000F006F800F024F8002010BD00200240D0
:1007E00070B50D4D04464FF47A712878B1FBF0F0E6
:1007F0000A490968B1FBF0F000F0AEFA48B9102CD4
:1008000007D200222146501E00F028F800206C601C
:1008100070BD012070BD0000000000200C00002011
:100820000C4808B5816941F001018161816901F0DD
:1008300001010091C16941F08051C161C06900F0BE
:10084000805000900448416821F0E06141F000715F
:10085000416008BD0010024000000140F0B40E4BA2
:100860001B680C46C3F30223C3F10705042D00D90E
:100870000425191D072901D2002300E0DB1E0126F3
:1008800006FA05F1491E214099409E40761E164009
:100890003143F0BC00F0FABB0CED00E0064900F07B
:1008A000070208684FF6FF03184040EA0220034A97
:1008B00010430860704700000CED00E00000FA05EE
:1008C0002DE9F0470F46050061D0434E306800F037
:1008D0000700B84209D2306820F007003843306082
:1008E000306800F00700B84251D128683B4C8107BE
:1008F00012D5400703D5606840F4E0606060287856
:10090000000703D5606840F4605060606068A968C3
:1009100020F0F000084360602878C00728D068689D
:10092000012810D02168022810D0890700292EDA6A
:10093000616821F0030101436160FFF731FF8046E8
:1009400041F288390DE021688903EFE78901EDE77D
:10095000FFF726FFA0EB0801494502D90320BDE8B7
:10096000F0876068696800F00C00B0EB810FEFD190
:10097000306800F00700B8420BD9306820F007005B
:1009800038433060306800F00700B84201D00120E1
:10099000E5E72878400705D56068E96820F4E0605D
:1009A000084360602878000706D56068296920F44C
:1009B000605040EAC100606000F018F86168084AC1
:1009C000C1F30311515CC84006490860064800683D
:1009D000FFF706FF0020C2E700200240001002409F
:1009E000F61000080C000020040000200E4A516898
:1009F0000E4801F00C03042B11D0082B0FD10C482A
:100A0000C1F38343C903C05C0AD55168084AC1F3E6
:100A10004041921E515C054A5043B0FBF1F07047D3
:100A200004494843704700000010024000127A0059
:100A3000E610000800093D002DE9F84F040070D0D1
:100A40002078C04DC00749D06868C0F381000128F4
:100A500007D06868C0F38100022809D16868C00324
:100A600006D52868800339D560680028E7D035E0CE
:100A70006068B0F5803F0BD010B1B0F5A02F11D059
:100A8000286820F480302860286820F4802002E064
:100A9000286840F480302860606890B1FFF780FEDD
:100AA00006460AE0286840F480202860F0E700BF8E
:100AB000FFF776FE801B642873D828688003F7D57B
:100AC0000CE0FFF76DFE064605E000BFFFF768FE8D
:100AD000801B6428F0D828688003F7D420789A4EC9
:100AE00080074FF001094FF0000839D5686810F011
:100AF0000C0F07D06868C0F38100022809D168682C
:100B0000C00306D42868800714D52069012808D1BD
:100B100010E02069B0B1C6F80090FFF741FE07462B
:100B200005E00AE1FFF73CFEC01B0228C4D8286894
:100B30008007F7D52868616920F0F80040EAC10015
:100B400028600DE0C6F80080FFF72AFE074604E0A3
:100B5000FFF726FEC01B022823D828688007F7D499
:100B6000207800072CD57948A169D9B1C0F8009048
:100B7000FFF716FE074604E0FFF712FEC01B02282F
:100B80000FD8686A8007F7D571484FF4FA510068AA
:100B9000B0FBF1F0009000BF0098411E0091FAD226
:100BA0000EE080E0C0F80080FFF7FAFD074604E0A1
:100BB000FFF7F6FDC01B022875D8686A8007F7D4D6
:100BC0002078400760D5E8690027C00008D4E869AC
:100BD00040F08050E861E869012700F08050009003
:100BE0005C480168C90513D40168834641F48071EB
:100BF0000160FFF7D5FD824606E000BFFFF7D0FD9C
:100C0000A0EB0A0064284ED8DBF80000C005F5D53B
:100C1000E06801280AD008B1052813D0286A20F01E
:100C200001002862286A20F0040002E0286A40F0EF
:100C300001002862E06841F2883B98B1FFF7B0FDFF
:100C400082460BE0286A40F004002862EEE700BF0D
:100C5000FFF7A6FDA0EB0A0159455AD8286A80077C
:100C6000F6D50CE0FFF79CFD824605E0FFF798FD06
:100C7000A0EB0A0159454CD8286A8007F6D41FB169
:100C8000E86920F08050E861E06988B36968C1F3E1
:100C90008101022944D00228C6F8608004D0FFF701
:100CA0007FFD044638E034E0FFF77AFD074604E0B4
:100CB000FFF776FDC01B02282BD828688001F7D4E7
:100CC000206AB0F5803F05D16868A16820F4003043
:100CD00008436860D4E908010843696821F4741185
:100CE00008436860C6F86090FFF75AFD044606E0C6
:100CF00025E000BFFFF754FD001B022809D8286833
:100D00008001F7D51BE000BFFFF74AFD001B02285A
:100D100002D90320BDE8F88F28688001F4D40EE0E2
:100D20000128F7D06868226A00F48031914204D12A
:100D3000616A00F47010884201D00120EAE70020C7
:100D4000E8E70000001002400000424280044242F6
:100D50000C0000200070004010B5401EB0F1807FF4
:100D600001D3012010BD4FF0E02460610F21601716
:100D700000F08CF90020A06107202061002010BD48
:100D8000FEE7000070B586B0002418480094019476
:100D900002940394816941F020018161816901F02D
:100DA00020010491816941F004018161816901F0B0
:100DB00004010491816941F00801816180690C4E50
:100DC00000F008004FF44075049000222946304698
:100DD000FFF7E0FC01200095CDE90104022003901B
:100DE00069463046FFF7E6FB06B070BD00100240D2
:100DF000000C0140FEE7FEE770B50024002120460C
:100E000000F0DCF80025002000F0FAF86D1CEDB2CF
:100E1000802DF8D3641CE4B2082CEFD370BD000021
:100E200010B5FFF7AFFF064C012211022046FFF775
:100E3000B1FC20460122BDE810405102FFF7AABCD8
:100E4000000C01402DE9F047164E002407464FF0F4
:100E500080084FF40079B51528FA04F0384201D023
:100E6000012200E0002249463046FFF793FC0122B0
:100E700029463046FFF78EFC002229463046FFF710
:100E800089FC641CE4B2082CE6D3012229463046D2
:100E9000FFF780FC29463046BDE8F0470022FFF707
:100EA00079BC0000000C014070B501220B4D5402CA
:100EB00021462846FFF76EFC0122160231462846DD
:100EC000FFF768FC002221462846FFF763FC314605
:100ED0002846BDE870400022FFF75CBC000C0140D2
:100EE00070B50A4D4FF40074002221462846FFF7E2
:100EF00051FC012211022846FFF74CFC21462846EE
:100F0000BDE870400122FFF745BC0000000C014025
:100F100010B500204FF47A720021491C9142FCD395
:100F2000401C9042F8D3FFF77BFFAE2000F057F84B
:100F3000D52000F054F8802000F051F8A82000F0EF
:100F40004EF83F2000F04BF8D32000F048F8002086
:100F500000F045F8402000F042F8A12000F03FF8F2
:100F6000C82000F03CF8DA2000F039F8122000F038
:100F700036F8812000F033F8CF2000F030F8D92087
:100F800000F02DF8F12000F02AF8DB2000F027F81F
:100F9000302000F024F8A42000F021F8A62000F072
:100FA0001EF88D2000F01BF8142000F018F8AF2078
:100FB00000F015F8BDE81040FFF71EBF10B50C4655
:100FC00040F0B00000F00BF8102040EA141000F0E0
:100FD00006F804F00F00BDE81040AFF3008010B534
:100FE0000446FFF761FF7820FFF72CFF0020FFF792
:100FF00029FF2046FFF726FFBDE81040FFF770BF2E
:1010000010B50446FFF750FF7820FFF71BFF402084
:10101000FFF718FF2046FFF715FFBDE81040FFF768
:101020005FBF70477047FFF7C1BB30B58FB0282155
:101030006846FFF7DCF814210AA8FFF7D8F8012169
:101040000804CDE900100024029402250491CDE9A2
:1010500007504FF4E01009906846FFF7EDFC08B127
:1010600072B6FEE70F20CDE90A054FF48060CDE9A6
:101070000C4002210AA80E94FFF722FC002801D0A0
:1010800072B6FEE70FB030BD7047FEE70907090EE4
:10109000002804DB00F1E02080F80014704700F025
:1010A0000F0000F1E02080F8141D704708B5FFF72D
:1010B00085FBFFF7BAFFFFF765FEFFF729FFFFF794
:1010C0009BFE4FF00820FFF783F904A0042200687C
:1010D000009069460248FFF791F9FEE7123456780E
:1010E00000100008010202030405060708090A0BA4
:1010F0000C0D0E0F10100000000000000000010297
:101100000304060708090000281100080000002059
:10111000100000002801000838110008100000200D
:1011200080060000440100080100000010000000DB
:081130000000000000127A002B
:04000005080000ED02
:00000001FF
