:020000040800F2
:10000000B004002005010008D3130008F511000812
:10001000D113000871010008C71A00080000000091
:10002000000000000000000000000000F5160008BD
:100030007301000800000000F3160008F71600081E
:100040001F0100081F0100081F0100081F01000810
:100050001F0100081F0100081F0100081F01000800
:100060001F0100081F0100081F0100081F010008F0
:100070001F0100081F0100081F0100081F010008E0
:100080001F0100081F0100081F0100081F010008D0
:100090001F0100081F0100081F0100081F010008C0
:1000A0001F0100081F0100081F0100081F010008B0
:1000B0001F0100085D1700081F0100081F0100084C
:1000C0001F0100081F0100081F0100081F01000890
:1000D0001F0100081F0100081F0100081F01000880
:1000E0001F0100081F0100081F010008DFF810D0E1
:1000F00000F02CF800480047091B0008AFF300800F
:10010000B00400200648804706480047FEE7FEE7A7
:10011000FEE7FEE7FEE7FEE7FEE7FEE7FEE7FEE7B7
:1001200059170008ED000008D2B201E000F8012BD9
:10013000491EFBD270470022F6E710B513460A4667
:1001400004461946FFF7F0FF204610BD064C074D48
:1001500006E0E06840F0010394E807009847103497
:10016000AC42F6D3FFF7C6FF9C210008BC21000873
:10017000FEE7704772B6FEE72DE9F84FDFF8B89159
:100180000024A9F1040B23460F2709F1040AABF15F
:10019000040EC9E00125A5402A40AA427DD1674E40
:1001A000D1F804C0ACEB0608B44532D014DCBCF185
:1001B000030F3AD009DCBCF1000F2AD0BCF1010FCB
:1001C0001CD0BCF1020F31D11DE0BCF1110F17D0D2
:1001D000BCF1120F2AD119E0B8F5881F19D006DC3E
:1001E000B8F5803F15D0B8F5801F1FD111E0B8F5E4
:1001F000001F0ED0B8F5041F18D10AE0CB6815E037
:10020000CB681B1D12E0CB6808330FE0CB680C33C2
:100210000CE08B682BB1012B4FF0080303D0456134
:1002200004E0042302E0056100E00023FF2A01D876
:10023000064601E000F104064FEA840501D9A5F164
:100240002005D6F8008007FA05FC28EA0C0803FA16
:1002500005F548EA0508C6F800804D68ED0062D54E
:10026000374DAE6946F00106AE61AD6924F0030674
:1002700005F001050095334D06EB050CDCF8085040
:10028000A607360F07FA06F825EA0805DFF8B88052
:10029000404503D14FF0000817E044E0DFF8AC80A0
:1002A000404502D14FF001080FE0DFF8A48040453F
:1002B00002D14FF0020808E0DFF89880404502D1F3
:1002C0004FF0030801E04FF0040808FA06F848EA86
:1002D0000508CCF808804D68D9F80060ED024D465D
:1002E00001D5164300E096432E604D68DAF80060B1
:1002F000AD02554601D5164300E096432E604D6889
:10030000DBF80060AD035D4601D5164300E096437F
:100310002E604D68DEF80060ED03754601D516438A
:1003200000E096432E60641C0D682A46E5407FF489
:1003300031AFBDE8F88F0000080401400000111043
:10034000001002400000014000080140000C014084
:1003500000100140001401400AB101617047090416
:10036000FBE7000001488068704700000C00002097
:100370000248816802781144816070470C000020B7
:10038000074810B5016841F010010160032000F03A
:1003900075F80F2000F006F800F024F8002010BDDA
:1003A0000020024070B50D4D04464FF47A71287854
:1003B000B1FBF0F00A490968B1FBF0F000F0BCFABB
:1003C00048B9102C07D200222146501E00F036F802
:1003D00000206C6070BD012070BD00000C0000208A
:1003E000180000200C4808B5816941F001018161C5
:1003F000816901F001010091C16941F08051C16141
:10040000C06900F0805000900448416821F0E0612C
:1004100041F00071416008BD001002400000014041
:10042000002809DB00F01F020121914040098000F3
:1004300000F1E020C0F8001170470000F0B40E4B4E
:100440001B680C46C3F30223C3F10705042D00D932
:100450000425191D072901D2002300E0DB1E012617
:1004600006FA05F1491E214099409E40761E16402D
:100470003143F0BC01F028BB0CED00E0064900F070
:10048000070208684FF6FF03184040EA0220034ABB
:1004900010430860704700000CED00E00000FA0512
:1004A0002DE9F0470F46050061D0434E306800F05B
:1004B0000700B84209D2306820F0070038433060A6
:1004C000306800F00700B84251D128683B4C8107E2
:1004D00012D5400703D5606840F4E060606028787A
:1004E000000703D5606840F4605060606068A968E8
:1004F00020F0F000084360602878C00728D06868C2
:10050000012810D02168022810D0890700292EDA8E
:10051000616821F0030101436160FFF723FF80461A
:1005200041F288390DE021688903EFE78901EDE7A1
:10053000FFF718FFA0EB0801494502D90320BDE8E9
:10054000F0876068696800F00C00B0EB810FEFD1B4
:10055000306800F00700B8420BD9306820F007007F
:1005600038433060306800F00700B84201D0012005
:10057000E5E72878400705D56068E96820F4E06081
:10058000084360602878000706D56068296920F470
:10059000605040EAC100606000F018F86168084AE5
:1005A000C1F30311515CC840064908600648006861
:1005B000FFF7F8FE0020C2E70020024000100240D2
:1005C0009A1B000818000020100000200E4A5168F5
:1005D0000E4801F00C03042B11D0082B0FD10C484E
:1005E000C1F38343C903C05C0AD55168084AC1F30B
:1005F0004041921E515C054A5043B0FBF1F07047F8
:1006000004494843704700000010024000127A007D
:100610008A1B000800093D002DE9F84F040070D046
:100620002078C04DC00749D06868C0F38100012818
:1006300007D06868C0F38100022809D16868C00348
:1006400006D52868800339D560680028E7D035E0F2
:100650006068B0F5803F0BD010B1B0F5A02F11D07D
:10066000286820F480302860286820F4802002E088
:10067000286840F480302860606890B1FFF772FE0F
:1006800006460AE0286840F480202860F0E700BFB2
:10069000FFF768FE801B642873D828688003F7D5AD
:1006A0000CE0FFF75FFE064605E000BFFFF75AFECD
:1006B000801B6428F0D828688003F7D420789A4EED
:1006C00080074FF001094FF0000839D5686810F035
:1006D0000C0F07D06868C0F38100022809D1686850
:1006E000C00306D42868800714D52069012808D1E2
:1006F00010E02069B0B1C6F80090FFF733FE07465E
:1007000005E00AE1FFF72EFEC01B0228C4D82868C6
:100710008007F7D52868616920F0F80040EAC10039
:1007200028600DE0C6F80080FFF71CFE074604E0D5
:10073000FFF718FEC01B022823D828688007F7D4CB
:10074000207800072CD57948A169D9B1C0F800906C
:10075000FFF708FE074604E0FFF704FEC01B02286F
:100760000FD8686A8007F7D571484FF4FA510068CE
:10077000B0FBF1F0009000BF0098411E0091FAD24A
:100780000EE080E0C0F80080FFF7ECFD074604E0D3
:10079000FFF7E8FDC01B022875D8686A8007F7D408
:1007A0002078400760D5E8690027C00008D4E869D0
:1007B00040F08050E861E869012700F08050009027
:1007C0005C480168C90513D40168834641F480710F
:1007D0000160FFF7C7FD824606E000BFFFF7C2FDDC
:1007E000A0EB0A0064284ED8DBF80000C005F5D560
:1007F000E06801280AD008B1052813D0286A20F043
:1008000001002862286A20F0040002E0286A40F013
:1008100001002862E06841F2883B98B1FFF7A2FD31
:1008200082460BE0286A40F004002862EEE700BF31
:10083000FFF798FDA0EB0A0159455AD8286A8007AE
:10084000F6D50CE0FFF78EFD824605E0FFF78AFD46
:10085000A0EB0A0159454CD8286A8007F6D41FB18D
:10086000E86920F08050E861E06988B36968C1F305
:100870008101022944D00228C6F8608004D0FFF725
:1008800071FD044638E034E0FFF76CFD074604E0F4
:10089000FFF768FDC01B02282BD828688001F7D419
:1008A000206AB0F5803F05D16868A16820F4003067
:1008B00008436860D4E908010843696821F47411A9
:1008C00008436860C6F86090FFF74CFD044606E0F8
:1008D00025E000BFFFF746FD001B022809D8286865
:1008E0008001F7D51BE000BFFFF73CFD001B02288D
:1008F00002D90320BDE8F88F28688001F4D40EE007
:100900000128F7D06868226A00F48031914204D14E
:10091000616A00F47010884201D00120EAE70020EB
:10092000E8E700000010024000004242800442421A
:10093000180000200070004010B5401EB0F1807F0C
:1009400001D3012010BD4FF0E02460610F2160173A
:1009500001F0BAF80020A06107202061002010BD3E
:100960007047704770B590F83C20012A26D00124CA
:1009700080F83C40022280F83D2003685A689D6858
:1009800022F070060A6832435A600D4B02689A42A0
:1009900008D0B2F1804F05D00A4B9A4202D00A4BE0
:1009A0009A4204D1496825F080031943916080F888
:1009B0003D40002180F83C10084670BD022070BD0B
:1009C000002C0140000400400008004010B5040065
:1009D00003D094F83D0010B107E0012010BD0020C5
:1009E00084F83C00204600F01FF8022084F83D0007
:1009F000211D206800F0B8FE012084F8460084F82C
:100A00003E0084F83F0084F8400084F8410084F8F8
:100A1000420084F8430084F8440084F8450084F8D8
:100A20003D00002010BD000000B585B00021009100
:100A300001910291039101681748B1F1804F22D0D2
:100A4000164A91421DD1C16941F00201C161C169DB
:100A500001F002010491816941F004018161806922
:100A6000694600F004000490402000900C48FFF715
:100A700083FB002211461D20FFF7E0FC1D20FFF73D
:100A8000CFFC05B000BDC16941F00101C161C06981
:100A900000F001000490F4E7001002400004004060
:100AA0000008014070B5044690F83C00002501287C
:100AB00017D0012684F83C60022084F83D002068AD
:100AC000826822F0770222F47F4282600868502810
:100AD00038D00DDC20284FD005DC90B3102811D180
:100AE0004AE0022070BD302846D040280AD13BE0C1
:100AF00060282FD070280DD0B0F5805F03D0B0F5FE
:100B0000005F12D0012584F83D60002084F83C008D
:100B1000284670BDCB68D1E90121206800F06DFE48
:100B20002068816841F0770109E0CB68D1E90121B3
:100B3000206800F062FE2068816841F48041816095
:100B4000E1E719E0CA684968206800F051FF5021C8
:100B5000206806E0CA684968206800F087FF6021C5
:100B6000206800F054FECEE7CA684968206800F0AB
:100B70003FFF40212068F4E7226801461046F0E775
:100B800010B50F4A016891420FD1017F0D4C012928
:100B90000CD0022909D1042100F0EBFA6421401C99
:100BA0004843A168B0FBF1F0606010BD002100F087
:100BB000E0FA401C0449A060B1FBF0F0206010BDD9
:100BC000000400400000002040420F002DE9F041E9
:100BD000054690F83C0000260C46012810D0012064
:100BE00085F83C0072B1042A1CD0082A2CD00C2AAB
:100BF00050D00126002085F83C003046BDE8F08149
:100C00000220FBE7D4E90012E368286800F002FF45
:100C10002868816921F00C01816128688169A268D6
:100C200011430FE0D4E90012E368286800F030FFB8
:100C30002868816921F44061816128688169A2681E
:100C400041EA02218161D5E72868D4E9002C277B9D
:100C5000036A016A21F480710162C16923F400739F
:100C600021F0030141EA0C0121F0F00C39074FF4A7
:100C700000774CEA116107EA02221A43C16102625D
:100C80002868C16921F00C01C1612868C169A268A6
:100C900011432BE02868D4E90021E768036AD0F803
:100CA00020C02CF4805CC0F820C0D0F81CC023F415
:100CB00000532CF4407C4CEA012121F4704C4FF697
:100CC000FF7101EA07314FF4005741EA0C0107EACE
:100CD00002321A43C16102622868C16921F440618D
:100CE000C1612868C169A26841EA0221C16181E746
:100CF00010B5040003D094F83D0010B107E00120C6
:100D000010BD002084F83C00204600F01EF80220B0
:100D100084F83D00211D206800F026FD012084F8A4
:100D2000460084F83E0084F83F0084F8400084F8D0
:100D3000410084F8420084F8430084F8440084F8B9
:100D4000450084F83D00002010BD704730B50446D2
:100D5000002551B104290DD0082910D094F8410084
:100D600094F84520012811D10EE094F83E0094F843
:100D70004220F7E794F83F0094F84320F2E794F814
:100D8000400094F84420EDE7012A01D0012030BD55
:100D9000022059B1042912D0082919D084F8410041
:100DA00084F845000C2938D0012534E084F83E0051
:100DB00084F842002068C26842F0020210E084F821
:100DC0003F0084F843002068C26842F0040207E054
:100DD00084F8400084F844002068C26842F00802A9
:100DE000C2600122206800F0FBFC0E4920688842A6
:100DF00008D0B0F1804F05D00B49884202D00B4992
:100E0000884204D1816801F00701062903D00168F6
:100E100041F001010160284630BD2068C26842F0FF
:100E20001002DDE7002C01400004004000080040F3
:100E30002DE9F04104460068C66805694FF00007D7
:100E4000A90713D5B10711D5F91E0161012020773B
:100E5000206880698007204602D0FFF791FE04E0F9
:100E600000F0A2F8204600F034F92777680716D57D
:100E7000700714D521686FF0040008610220207704
:100E80002068806910F4407F204602D0FFF778FE8A
:100E900004E000F089F8204600F01BF927772807C6
:100EA00015D5300713D521686FF0080008610420BC
:100EB00020772068C0698007204602D0FFF760FED7
:100EC00004E000F071F8204600F003F92777E80607
:100ED00016D5F00614D521686FF0100008610820BF
:100EE00020772068C06910F4407F204602D0FFF7C9
:100EF00047FE04E000F058F8204600F0EAF82777B3
:100F0000E80708D0F00706D021686FF001000861FB
:100F1000204600F02DF9280608D5300606D52168B0
:100F20006FF0800008612046FFF71AFD680608D5BB
:100F3000700606D521686FF040000861204600F079
:100F400058F9A8060AD5B00608D521686FF0200028
:100F500008612046BDE8F041FFF703BDBDE8F08120
:100F600000B585B0002100910191029103910068C4
:100F7000B0F1804F11D10A48816941F004018161CB
:100F80008069694600F0040004900120009002206E
:100F9000019003900348FFF7EFF805B000BD000093
:100FA0000010024000080140704770B5044690F8F8
:100FB0003C0000260D4601280FD0012084F83C009B
:100FC0006AB1042A1DD0082A2FD00C2A3FD001264E
:100FD000002084F83C00304670BD022070BD2068BF
:100FE00000F01EFC2068816941F0080181612068E1
:100FF000816921F004018161206881692A691143B6
:1010000011E0206800F034FC2068816941F400613F
:1010100081612068816921F4806181612068816932
:101020002A6941EA02218161D2E7206800F04CFC84
:101030002068C16941F00801C1612068C16921F0DF
:101040000401C1612068C1692A69114311E0206867
:1010500000F066FC2068C16941F40061C16120684C
:10106000C16921F48061C1612068C1692A6941EACE
:101070000221C161ACE710B5040003D094F83D0033
:1010800010B107E0012010BD002084F83C0020468C
:1010900000F01EF8022084F83D00211D206800F0B9
:1010A00063FB012084F8460084F83E0084F83F008A
:1010B00084F8400084F8410084F8420084F843003A
:1010C00084F8440084F8450084F83D00002010BDF9
:1010D0007047704710B50446022249B104290ED06A
:1010E000082913D094F84100012816D0012010BD22
:1010F00094F83E000128F9D184F83E200FE094F8DE
:101100003F000128F2D184F83F2008E094F8400025
:101110000128EBD184F8402001E084F8412001222D
:10112000206800F05DFB0F492068884203D1426CC3
:1011300042F4004242642068884208D0B0F1804FF7
:1011400005D00949884202D00849884204D1816803
:1011500001F00701062903D0016841F00101016097
:10116000002010BD002C0140000400400008004099
:1011700070470246002041B1042909D008290AD04D
:101180000C2901D11068006C70471068406B7047E3
:101190001068806B70471068C06B704770B504466C
:1011A00090F83C00012812D0012584F83C50022020
:1011B00084F83D00204600F0D5FB01004FF0000010
:1011C00007D084F83D5084F83C00012070BD022017
:1011D00070BD2168CA6822F04002CA602168CA68EE
:1011E00022F48042CA6084F83D5084F83C0000201C
:1011F00070BD7047FEE7000070B586B00024184847
:101200000094019402940394816941F0200181616A
:10121000816901F020010491816941F0040181613B
:10122000816901F004010491816941F00801816143
:1012300080690C4E00F008004FF4407504900022C5
:1012400029463046FFF788F811200095CDE90104C2
:101250000220039069463046FEF78EFF06B070BD4F
:1012600000100240000C014010B58EB0002407941D
:10127000089409940A940B941C2168460C94FEF778
:101280005AFF1E484FF08041016040F2CF21C0E973
:1012900001146321C0E903148461FFF797FB08B1CF
:1012A000FEF768FF4FF48050079007A91348FFF737
:1012B000F9FB08B1FEF75EFF1048FFF7DCFE08B14E
:1012C000FEF758FF0B940BA90C480C94FFF74AFB50
:1012D00008B1FEF74FFF602000903220CDE90104F5
:1012E0000022694605480494FFF75FFE08B1FEF747
:1012F00041FF0248FFF734FE0EB010BD1C00002075
:1013000010B590B0002409940A940B94142104A8F9
:101310000C94FEF710FF2D480D940E940094019448
:1013200002942949039401604721C0E901144FF652
:10133000FF71C0E9031480218161FFF747FB08B109
:10134000FEF718FF4FF48050099009A91F48FFF7D6
:10135000A9FB08B1FEF70EFF1C48FFF7C9FC08B156
:10136000FEF708FF042004905020CDE9050404A9ED
:1013700016480894FFF712FF08B1FEF7FBFE0D9424
:101380000DA912480E94FFF7EDFA08B1FEF7F2FE30
:101390000120CDE900400294002269460B480394E5
:1013A000FFF714FC08B1FEF7E5FE02200090019063
:1013B000042269460548FFF709FC002801D0FEF722
:1013C000D9FE10B010BD00000004004064000020F1
:1013D000FEE7FEE770B500240021204600F0E3F8A8
:1013E0000025002000F074F96D1CEDB2802DF8D3BB
:1013F000641CE4B2082CEFD370BD000010B5FFF7F9
:10140000FBFE064C012211022046FEF7A5FF2046F6
:101410000122BDE810405102FEF79EBF000C0140C2
:101420002DE9F047164E002407464FF080084FF490
:101430000079B51528FA04F0384201D0012200E005
:10144000002249463046FEF787FF012229463046F2
:10145000FEF782FF002229463046FEF77DFF641C1E
:10146000E4B2082CE6D3012229463046FEF774FF89
:1014700029463046BDE8F0470022FEF76DBF000068
:10148000000C014070B501220B4D54022146284644
:10149000FEF762FF0122160231462846FEF75CFF86
:1014A000002221462846FEF757FF31462846BDE870
:1014B00070400022FEF750BF000C014070B50A4D8D
:1014C0004FF40074002221462846FEF745FF012212
:1014D00011022846FEF740FF21462846BDE870402D
:1014E0000122FEF739BF0000000C014010B50020BA
:1014F0004FF47A720021491C9142FCD3401C904267
:10150000F8D3FFF77BFFAE2000F0D1F8D52000F034
:10151000CEF8802000F0CBF8A82000F0C8F83F20DB
:1015200000F0C5F8D32000F0C2F8002000F0BFF8AA
:10153000402000F0BCF8A12000F0B9F8C82000F06D
:10154000B6F8DA2000F0B3F8122000F0B0F88120ED
:1015500000F0ADF8CF2000F0AAF8D92000F0A7F8ED
:10156000F12000F0A4F8DB2000F0A1F8302000F01A
:101570009EF8A42000F09BF8A62000F098F88D209B
:1015800000F095F8142000F092F8AF2000F08FF8EA
:10159000BDE81040FFF71EBF0246012000E05043A7
:1015A000491EFCD2704710B50C4640F0B00000F068
:1015B0007EF8102040EA141000F079F804F00F00D3
:1015C000BDE8104000F073B82DE9F0410746CE00A9
:1015D0004000083E801E15464FF0FF38F1B2C0B201
:1015E000FFF7E1FF1148002400EB05152819A0F5CD
:1015F000805090F8000E00F06BF8641CE4B2082CE8
:10160000F4D308EB4700F1B2C0B2FFF7CCFF0024DF
:101610002819A0F5805090F8080E00F059F8641CC5
:10162000E4B2082CF4D3BDE8F0810000AA1B000846
:101630002DE9F0471E4614008846814604D42B222B
:10164000FFF7C2FF254603E02D22FFF7BDFF6542ED
:1016500000240A2714E0311B0A20491EFFF79CFFD3
:10166000B5FBF0F0B0FBF7F107FB110208EB04004B
:10167000401CC1B248463032FFF7A6FF641CE4B2FA
:10168000B442E8D3BDE8F0872DE9F04115460E4697
:101690000746002406E03019C1B23846FFF794FF30
:1016A000641CE4B22A5D002AF5D1BDE8F08110B5D2
:1016B0000446FFF7E7FE7820FFF7B2FE0020FFF7B1
:1016C000AFFE2046FFF7ACFEBDE81040FFF7F6BEC8
:1016D00010B50446FFF7D6FE7820FFF7A1FE4020A4
:1016E000FFF79EFE2046FFF79BFEBDE81040FFF788
:1016F000E5BE70477047FEF73BBE30B58FB028217E
:101700006846FEF718FD14210AA8FEF714FD012112
:101710000804CDE900100024029402250491CDE9CB
:1017200007504FF4E01009906846FEF775FF08B1C6
:1017300072B6FEE70F20CDE90A054FF48060CDE9CF
:101740000C4002210AA80E94FEF7AAFE002801D040
:1017500072B6FEE70FB030BD704700000148FFF7DA
:1017600067BB000064000020F0B50268194B1A4CFA
:101770001A4D4FF08047984205D0B84203D0A0429E
:1017800001D0A84203D122F070064A683243984241
:1017900005D0B84203D0A04201D0A84203D122F420
:1017A0004074CA6822434C6922F0800222430260DE
:1017B0008A68C2620A688262984201D1096901633B
:1017C000012141610169C90703D0016921F00101CB
:1017D0000161F0BD002C0140000400400008004001
:1017E00010B501F01F030121046A99408C43046283
:1017F000016A9A401143016210BD10B5846842EA43
:10180000032224F47F440A432243826010BD82688D
:1018100022F070020A4342F0070181607047000025
:1018200030B5036A026A22F00102026242688469EA
:1018300024F073050C682C4323F002058B682B43BE
:101840000A4DA8420BD123F00805CB6822F4407260
:101850002B434D6923F0040315438A692A434260F0
:10186000846149684163036230BD0000002C01407F
:1018700030B5026A036A23F0100303624368846987
:101880000D6824F4E64444EA05248D6822F0200221
:1018900042EA05120B4DA8420ED1CD6822F080021B
:1018A00042EA05124D6923F4406343EA85038D69DA
:1018B00022F0400243EA8503436084614968816302
:1018C000026230BD002C014030B5036A026A22F486
:1018D000807202624268C46923F4007324F07305C5
:1018E0000C682C438D6843EA05230C4DA8420ED1A9
:1018F000CD6823F4006343EA05234D6922F4405286
:1019000042EA05128D6923F4806342EA05124260BF
:10191000C4614968C163036230BD0000002C01400E
:1019200030B5046A026A22F4805202624268C369D6
:101930000D6823F4E64343EA05238D6824F400543C
:1019400044EA0534064DA84204D14D6922F4804290
:1019500042EA85124260C36149680164046230BD95
:10196000002C014070B5036800249A6822F07005CD
:101970004A682A4322F007050A682A439A604A689F
:1019800012F00F0F31D11211082A2ED2DFE802F027
:101990002E2E2E2E0B2127040B69D1E9022100687F
:1019A000FFF72BFF22E00A68052A10D00268136AAD
:1019B000156A25F00105156202689569096925F027
:1019C000F00545EA01119161006803620EE0012013
:1019D00070BD0A698968006800F00AF806E00A69C3
:1019E0008968006800F042F800E00124204670BDDC
:1019F00010B5036A046A24F001040462846924F0C7
:101A0000F00444EA021423F00A020A4384610262E9
:101A100010BD000070B5056A046A24F00104046278
:101A200084690F4EB04208D0B0F1804F05D00D4E02
:101A3000B04202D00C4EB04203D124F00304144350
:101A400001E044F001041A0724F0F00444EA1262B1
:101A500025F00A0301F00A0119438261016270BD99
:101A6000002C0140000400400008004010B5036A4B
:101A7000046A24F010040462846923F0A00324F4AF
:101A8000704444EA023243EA01118261016210BDEE
:101A900030B5046A056A25F010050562856925F4EC
:101AA000407545EA022222F470454FF6FF7202EAC1
:101AB000033224F0A0032A43A02404EA01111943AD
:101AC0008261016230BDFEE70907090E002804DBD0
:101AD00000F1E02080F80014704700F00F0000F1E2
:101AE000E02080F8141D704702E008C8121F08C1EA
:101AF000002AFAD170477047002001E001C1121F8F
:101B0000002AFBD170470000FEF73AFCFFF7F5FD15
:101B1000FFF772FBFFF7A8FBFFF7F2FBFFF7E6FC0E
:101B200000211248FFF7D6FA00211148FFF70EF9FD
:101B300004210F48FFF70AF9FFF74CFC01210DA221
:101B40000846FFF7A1FD0DA201210220FFF79CFD31
:101B50000C4C0523062101202268FFF769FD0323B1
:101B6000062102206268FFF763FDF2E71C000020F7
:101B700064000020467265713A0000004475747973
:101B80003A000000000000200102020304050607DD
:101B900008090A0B0C0D0E0F1010000000000000C9
:101BA000000001020304060708090000000000000D
:101BB00000000000000000000000000000F800002D
:101BC0000000000000333000000000100C06100C74
:101BD0000600000000000000000040C07840C0780F
:101BE0004000043F04043F040400007088FC0830F7
:101BF0000000001820FF211E0000F008F000E0188F
:101C0000000000211C031E211E0000F00888700047
:101C100000001E2123241927211010160E00000099
:101C200000000000000000000000000000E01804B8
:101C30000200000000071820400000020418E00025
:101C400000000040201807000000404080F0804065
:101C500040000202010F01020200000000F000003B
:101C600000000101011F010101000000000000004F
:101C7000000080B0700000000000000000000000C4
:101C8000000000010101010101010000000000004D
:101C90000000003030000000000000000000806004
:101CA0001804006018060100000000E01008081089
:101CB000E000000F102020100F00001010F80000AE
:101CC00000000020203F2020000000700808088845
:101CD0007000003028242221300000300888884815
:101CE00030000018202020110E000000C02010F845
:101CF000000000070424243F240000F80888880816
:101D000008000019212020110E0000E0108888181A
:101D10000000000F112020110E0000380808C838FC
:101D200008000000003F00000000007088080888DC
:101D30007000001C222121221C0000E01008081065
:101D4000E0000000312222110F00000000C0C0009E
:101D500000000000003030000000000000800000A3
:101D600000000000806000000000000080402010A3
:101D7000080000010204081020004040404040409C
:101D800040000404040404040400000810204080FF
:101D90000000002010080402010000704808080834
:101DA000F0000000003036010000C030C828E81004
:101DB000E0000718272423140B000000C038E000BF
:101DC0000000203C23020227382008F88888887009
:101DD0000000203F202020110E00C0300808080815
:101DE0003800071820202010080008F808080810FC
:101DF000E000203F202020100F0008F88888E80825
:101E00001000203F20202320180008F88888E808C8
:101E10001000203F200003000000C03008080838F0
:101E2000000007182020221E020008F80800000801
:101E3000F808203F210101213F20000808F8080888
:101E400000000020203F2020000000000808F808C3
:101E50000800C08080807F00000008F888C0281833
:101E60000800203F20012638200008F80800000064
:101E70000000203F20202020300008F8F800F8F86B
:101E80000800203F003F003F200008F830C0000855
:101E9000F808203F200007183F00E010080808104D
:101EA000E0000F10202020100F0008F80808080894
:101EB000F000203F210101010000E0100808081097
:101EC000E0000F18242438504F0008F888888888CC
:101ED0007000203F2000030C3020007088080808A4
:101EE00038000038202121221C00180808F80808B2
:101EF00018000000203F2000000008F8080000083B
:101F0000F808001F202020201F000878880000C843
:101F10003808000007380E010000F80800F8000833
:101F2000F800033C0700073C03000818688080683D
:101F3000180820302C03032C30200838C800C8387B
:101F400008000000203F2000000010080808C838E2
:101F500008002038262120201800000000FE020280
:101F600002000000007F40404000000C30C0000034
:101F70000000000000010638C00000020202FE005E
:101F80000000004040407F00000000000402020208
:101F9000040000000000000000000000000000003D
:101FA0000000808080808080808000020204000029
:101FB0000000000000000000000000008080808021
:101FC00000000019242222223F2008F8008080000F
:101FD0000000003F112020110E00000000808080D2
:101FE0000000000E112020201100000000808088D9
:101FF000F800000E112020103F200000808080801B
:102000000000001F222222221300008080F0888816
:1020100088180020203F2020000000008080808061
:102020008000006B94949493600008F80080808096
:102030000000203F210000203F20008098980000F1
:1020400000000020203F2020000000000080989821
:10205000000000C08080807F000008F800008080C1
:102060008000203F24022D302000000808F80000E6
:1020700000000020203F20200000808080808080A1
:102080008000203F20003F20003F80800080808033
:102090000000203F210000203F2000008080808041
:1020A0000000001F202020201F0080800080800072
:1020B000000080FFA12020110E0000000080808021
:1020C0008000000E112020A0FF8080808000808092
:1020D000800020203F2120000100000080808080BF
:1020E00080000033242424241900008080E08080B4
:1020F00000000000001F2020000080800000008001
:102100008000001F202020103F2080808000008061
:10211000808000010E300806010080800080008071
:1021200080800F300C030C300F0000808000808016
:1021300080000020312E0E31200080808000008041
:10214000808080818E7018060100008080808080F1
:1021500080000021302C2221300000000000807C13
:10216000020200000000003F404000000000FF00AD
:10217000000000000000FF0000000002027C800060
:1021800000000040403F0000000000060101020284
:10219000040400000000000000000000BC21000852
:1021A000000000201C000000E81A0008D8210008E8
:1021B0001C00002094040000F81A00080000000031
:1021C00000000000000000000100000010000000FE
:0821D0000000000000127A007B
:04000005080000ED02
:00000001FF
